{
  "address": "0xE473e7c11eDf5fd9c5617Df24785DcACBcDE29Ca",
  "abi": [
    {
      "inputs": [
        {
          "internalType": "address",
          "name": "router",
          "type": "address"
        },
        {
          "internalType": "bytes32",
          "name": "_donId",
          "type": "bytes32"
        }
      ],
      "stateMutability": "nonpayable",
      "type": "constructor"
    },
    {
      "inputs": [],
      "name": "EmptyArgs",
      "type": "error"
    },
    {
      "inputs": [],
      "name": "EmptySource",
      "type": "error"
    },
    {
      "inputs": [],
      "name": "NoInlineSecrets",
      "type": "error"
    },
    {
      "inputs": [],
      "name": "OnlyRouterCanFulfill",
      "type": "error"
    },
    {
      "anonymous": false,
      "inputs": [
        {
          "indexed": true,
          "internalType": "address",
          "name": "from",
          "type": "address"
        },
        {
          "indexed": true,
          "internalType": "address",
          "name": "to",
          "type": "address"
        }
      ],
      "name": "OwnershipTransferRequested",
      "type": "event"
    },
    {
      "anonymous": false,
      "inputs": [
        {
          "indexed": true,
          "internalType": "address",
          "name": "from",
          "type": "address"
        },
        {
          "indexed": true,
          "internalType": "address",
          "name": "to",
          "type": "address"
        }
      ],
      "name": "OwnershipTransferred",
      "type": "event"
    },
    {
      "anonymous": false,
      "inputs": [
        {
          "indexed": true,
          "internalType": "bytes32",
          "name": "id",
          "type": "bytes32"
        }
      ],
      "name": "RequestFulfilled",
      "type": "event"
    },
    {
      "anonymous": false,
      "inputs": [
        {
          "indexed": true,
          "internalType": "bytes32",
          "name": "id",
          "type": "bytes32"
        }
      ],
      "name": "RequestSent",
      "type": "event"
    },
    {
      "anonymous": false,
      "inputs": [
        {
          "indexed": false,
          "internalType": "bytes32",
          "name": "_requestId",
          "type": "bytes32"
        },
        {
          "indexed": false,
          "internalType": "bytes",
          "name": "_response",
          "type": "bytes"
        }
      ],
      "name": "ResponseReceived",
      "type": "event"
    },
    {
      "anonymous": false,
      "inputs": [
        {
          "indexed": false,
          "internalType": "bytes32",
          "name": "requestID",
          "type": "bytes32"
        }
      ],
      "name": "_RequestSent",
      "type": "event"
    },
    {
      "inputs": [],
      "name": "StravaCall",
      "outputs": [
        {
          "internalType": "string",
          "name": "",
          "type": "string"
        }
      ],
      "stateMutability": "view",
      "type": "function"
    },
    {
      "inputs": [],
      "name": "_router",
      "outputs": [
        {
          "internalType": "address",
          "name": "",
          "type": "address"
        }
      ],
      "stateMutability": "view",
      "type": "function"
    },
    {
      "inputs": [],
      "name": "acceptOwnership",
      "outputs": [],
      "stateMutability": "nonpayable",
      "type": "function"
    },
    {
      "inputs": [
        {
          "internalType": "bytes32",
          "name": "_bytes32",
          "type": "bytes32"
        }
      ],
      "name": "bytes32ToString",
      "outputs": [
        {
          "internalType": "string",
          "name": "",
          "type": "string"
        }
      ],
      "stateMutability": "pure",
      "type": "function"
    },
    {
      "inputs": [],
      "name": "callbackGasLimit",
      "outputs": [
        {
          "internalType": "uint32",
          "name": "",
          "type": "uint32"
        }
      ],
      "stateMutability": "view",
      "type": "function"
    },
    {
      "inputs": [],
      "name": "contract_Admin",
      "outputs": [
        {
          "internalType": "address",
          "name": "",
          "type": "address"
        }
      ],
      "stateMutability": "view",
      "type": "function"
    },
    {
      "inputs": [],
      "name": "donId",
      "outputs": [
        {
          "internalType": "bytes32",
          "name": "",
          "type": "bytes32"
        }
      ],
      "stateMutability": "view",
      "type": "function"
    },
    {
      "inputs": [
        {
          "internalType": "bytes32",
          "name": "requestId",
          "type": "bytes32"
        },
        {
          "internalType": "bytes",
          "name": "response",
          "type": "bytes"
        },
        {
          "internalType": "bytes",
          "name": "err",
          "type": "bytes"
        }
      ],
      "name": "handleOracleFulfillment",
      "outputs": [],
      "stateMutability": "nonpayable",
      "type": "function"
    },
    {
      "inputs": [],
      "name": "owner",
      "outputs": [
        {
          "internalType": "address",
          "name": "",
          "type": "address"
        }
      ],
      "stateMutability": "view",
      "type": "function"
    },
    {
      "inputs": [
        {
          "internalType": "string",
          "name": "_stravaCall",
          "type": "string"
        }
      ],
      "name": "populateStravaCall",
      "outputs": [],
      "stateMutability": "nonpayable",
      "type": "function"
    },
    {
      "inputs": [
        {
          "internalType": "uint64",
          "name": "_subId",
          "type": "uint64"
        },
        {
          "internalType": "uint32",
          "name": "_callbackGasLimit",
          "type": "uint32"
        }
      ],
      "name": "populateSubIdANDGasLimit",
      "outputs": [],
      "stateMutability": "nonpayable",
      "type": "function"
    },
    {
      "inputs": [],
      "name": "s_lastError",
      "outputs": [
        {
          "internalType": "bytes",
          "name": "",
          "type": "bytes"
        }
      ],
      "stateMutability": "view",
      "type": "function"
    },
    {
      "inputs": [],
      "name": "s_lastRequestId",
      "outputs": [
        {
          "internalType": "bytes32",
          "name": "",
          "type": "bytes32"
        }
      ],
      "stateMutability": "view",
      "type": "function"
    },
    {
      "inputs": [],
      "name": "s_lastResponse",
      "outputs": [
        {
          "internalType": "bytes",
          "name": "",
          "type": "bytes"
        }
      ],
      "stateMutability": "view",
      "type": "function"
    },
    {
      "inputs": [
        {
          "internalType": "string[]",
          "name": "args",
          "type": "string[]"
        }
      ],
      "name": "sendRequest",
      "outputs": [],
      "stateMutability": "nonpayable",
      "type": "function"
    },
    {
      "inputs": [
        {
          "internalType": "address",
          "name": "_newAdmin",
          "type": "address"
        }
      ],
      "name": "setContractAdmin",
      "outputs": [],
      "stateMutability": "nonpayable",
      "type": "function"
    },
    {
      "inputs": [
        {
          "internalType": "bytes32",
          "name": "newDonId",
          "type": "bytes32"
        }
      ],
      "name": "setDonId",
      "outputs": [],
      "stateMutability": "nonpayable",
      "type": "function"
    },
    {
      "inputs": [],
      "name": "subscriptionId",
      "outputs": [
        {
          "internalType": "uint64",
          "name": "",
          "type": "uint64"
        }
      ],
      "stateMutability": "view",
      "type": "function"
    },
    {
      "inputs": [
        {
          "internalType": "address",
          "name": "to",
          "type": "address"
        }
      ],
      "name": "transferOwnership",
      "outputs": [],
      "stateMutability": "nonpayable",
      "type": "function"
    }
  ],
  "transactionHash": "0x160f71ed3fa32f14346cfc600c877a22dbcf673db31076846b980cb1a086ff53",
  "args": [
    "0xf9B8fc078197181C841c296C876945aaa425B278",
    "0x66756e2d626173652d7365706f6c69612d310000000000000000000000000000"
  ],
  "numDeployments": 1,
  "solcInputHash": "942cf78f9e01d8a40e843b798fe45bdd",
  "bytecode": "0x60a06040523480156200001157600080fd5b5060405162001d1738038062001d178339810160408190526200003491620001c3565b6001600160a01b0382166080523380600081620000985760405162461bcd60e51b815260206004820152601860248201527f43616e6e6f7420736574206f776e657220746f207a65726f000000000000000060448201526064015b60405180910390fd5b600080546001600160a01b0319166001600160a01b0384811691909117909155811615620000cb57620000cb8162000118565b5050600680546001600160a01b0319166001600160a01b03949094169390931790925560025550600880546001600160601b0316336c0100000000000000000000000002179055620001ff565b336001600160a01b03821603620001725760405162461bcd60e51b815260206004820152601760248201527f43616e6e6f74207472616e7366657220746f2073656c6600000000000000000060448201526064016200008f565b600180546001600160a01b0319166001600160a01b0383811691821790925560008054604051929316917fed8889f560326eb138920d842192f0eb3dd22b4f139c87a2c57538e05bae12789190a350565b60008060408385031215620001d757600080fd5b82516001600160a01b0381168114620001ef57600080fd5b6020939093015192949293505050565b608051611af562000222600039600081816102c60152610d3e0152611af56000f3fe608060405234801561001057600080fd5b50600436106101215760003560e01c806379ba5097116100ad578063b1e2174911610071578063b1e217491461026a578063ca526c6514610273578063ddf49c591461028d578063edae876f14610295578063f2fde38b146102a857600080fd5b806379ba509714610200578063824a1619146102085780638da5cb5b1461021b5780638dbe7b9d146102405780639201de551461025757600080fd5b80633944ea3a116100f45780633944ea3a146101aa5780634b0795a8146101bf5780634c8f60a3146101c757806377f9e5fa146101da57806378ca5de7146101ed57600080fd5b806309c1ba2e146101265780630ca7617514610156578063114d165b1461016b57806324f746971461017e575b600080fd5b600854610139906001600160401b031681565b6040516001600160401b0390911681526020015b60405180910390f35b610169610164366004611366565b6102bb565b005b6101696101793660046113d2565b61033f565b60085461019590600160401b900463ffffffff1681565b60405163ffffffff909116815260200161014d565b6101b2610359565b60405161014d9190611489565b6101b26103e7565b6101696101d536600461149c565b6103f4565b6101696101e83660046114fe565b610403565b6101696101fb366004611527565b61046d565b61016961047a565b610169610216366004611540565b610524565b6000546001600160a01b03165b6040516001600160a01b03909116815260200161014d565b61024960025481565b60405190815260200161014d565b6101b2610265366004611527565b610563565b61024960035481565b60085461022890600160601b90046001600160a01b031681565b6101b2610699565b600654610228906001600160a01b031681565b6101696102b63660046114fe565b6106a6565b336001600160a01b037f000000000000000000000000000000000000000000000000000000000000000016146103045760405163c6829f8360e01b815260040160405180910390fd5b61030f8383836106ba565b60405183907f85e1543bf2f84fe80c6badbce3648c8539ad1df4d2b3d822938ca0538be727e690600090a2505050565b610347610719565b6007610354828483611616565b505050565b600480546103669061158e565b80601f01602080910402602001604051908101604052809291908181526020018280546103929061158e565b80156103df5780601f106103b4576101008083540402835291602001916103df565b820191906000526020600020905b8154815290600101906020018083116103c257829003601f168201915b505050505081565b600580546103669061158e565b6103ff82823361076e565b5050565b6008543390600160601b90046001600160a01b0316811461043f5760405162461bcd60e51b8152600401610436906116d6565b60405180910390fd5b50600880546001600160a01b03909216600160601b026bffffffffffffffffffffffff909216919091179055565b610475610719565b600255565b6001546001600160a01b031633146104cd5760405162461bcd60e51b815260206004820152601660248201527526bab9ba10313290383937b837b9b2b21037bbb732b960511b6044820152606401610436565b60008054336001600160a01b0319808316821784556001805490911690556040516001600160a01b0390921692909183917f8be0079c531659141344cd1fd0a4f28419497f9722a3daafe3b4186f6b6457e091a350565b61052c610719565b6008805463ffffffff909216600160401b026bffffffffffffffffffffffff199092166001600160401b0390931692909217179055565b606060005b60208160ff1610801561059c5750828160ff166020811061058b5761058b61171d565b1a60f81b6001600160f81b03191615155b156105b357806105ab81611749565b915050610568565b60008160ff166001600160401b038111156105d0576105d06112a9565b6040519080825280601f01601f1916602001820160405280156105fa576020820181803683370190505b509050600091505b60208260ff161080156106365750838260ff16602081106106255761062561171d565b1a60f81b6001600160f81b03191615155b1561069257838260ff16602081106106505761065061171d565b1a60f81b818360ff16815181106106695761066961171d565b60200101906001600160f81b031916908160001a9053508161068a81611749565b925050610602565b9392505050565b600780546103669061158e565b6106ae610719565b6106b781610910565b50565b60046106c68382611768565b5060056106d38282611768565b50815115610354577f2e58a9a9da8f950879e524a06e33834a54fee2efe5378327cfbafde627023a76838360405161070c929190611827565b60405180910390a1505050565b6000546001600160a01b0316331461076c5760405162461bcd60e51b815260206004820152601660248201527527b7363c9031b0b63630b1363290313c9037bbb732b960511b6044820152606401610436565b565b60085481906001600160a01b03808316600160601b90920416146107a45760405162461bcd60e51b8152600401610436906116d6565b6107e56040805160e0810190915280600081526020016000815260200160008152602001606081526020016060815260200160608152602001606081525090565b610887600080600780546107f89061158e565b80601f01602080910402602001604051908101604052809291908181526020018280546108249061158e565b80156108715780601f1061084657610100808354040283529160200191610871565b820191906000526020600020905b81548152906001019060200180831161085457829003601f168201915b5050505050846109b9909392919063ffffffff16565b83156108a1576108a161089a8587611848565b8290610a37565b6108d16108ad82610a61565b6008546002546001600160401b03821691600160401b900463ffffffff1690610d39565b60038190556040519081527f99bd121f0afb4ae58ac56b4536176dd1c5561e902dc687caea4b9039db9e41309060200160405180910390a15050505050565b336001600160a01b038216036109685760405162461bcd60e51b815260206004820152601760248201527f43616e6e6f74207472616e7366657220746f2073656c660000000000000000006044820152606401610436565b600180546001600160a01b0319166001600160a01b0383811691821790925560008054604051929316917fed8889f560326eb138920d842192f0eb3dd22b4f139c87a2c57538e05bae12789190a350565b80516000036109db576040516322ce3edd60e01b815260040160405180910390fd5b838360028111156109ee576109ee6118df565b90816002811115610a0157610a016118df565b90525060408401828015610a1757610a176118df565b90818015610a2757610a276118df565b9052506060909301929092525050565b8051600003610a595760405163fe936cb760e01b815260040160405180910390fd5b60a090910152565b60606000610a70610100610e0b565b9050610aa96040518060400160405280600c81526020016b31b7b232a637b1b0ba34b7b760a11b81525082610e2c90919063ffffffff16565b8251610ac7906002811115610ac057610ac06118df565b8290610e45565b6040805180820190915260088152676c616e677561676560c01b6020820152610af1908290610e2c565b6040830151610b08908015610ac057610ac06118df565b604080518082019091526006815265736f7572636560d01b6020820152610b30908290610e2c565b6060830151610b40908290610e2c565b60a08301515115610bd4576040805180820190915260048152636172677360e01b6020820152610b71908290610e2c565b610b7a81610e7e565b60005b8360a0015151811015610bca57610bba8460a001518281518110610ba357610ba361171d565b602002602001015183610e2c90919063ffffffff16565b610bc3816118f5565b9050610b7d565b50610bd481610ea2565b60808301515115610c9857600083602001516002811115610bf757610bf76118df565b03610c155760405163a80d31f760e01b815260040160405180910390fd5b60408051808201909152600f81526e39b2b1b932ba39a637b1b0ba34b7b760891b6020820152610c46908290610e2c565b610c5f83602001516002811115610ac057610ac06118df565b6040805180820190915260078152667365637265747360c81b6020820152610c88908290610e2c565b6080830151610c98908290610ec0565b60c08301515115610d315760408051808201909152600981526862797465734172677360b81b6020820152610cce908290610e2c565b610cd781610e7e565b60005b8360c0015151811015610d2757610d178460c001518281518110610d0057610d0061171d565b602002602001015183610ec090919063ffffffff16565b610d20816118f5565b9050610cda565b50610d3181610ea2565b515192915050565b6000807f00000000000000000000000000000000000000000000000000000000000000006001600160a01b031663461d27628688600188886040518663ffffffff1660e01b8152600401610d9195949392919061190e565b6020604051808303816000875af1158015610db0573d6000803e3d6000fd5b505050506040513d601f19601f82011682018060405250810190610dd49190611957565b60405190915081907f1131472297a800fee664d1d89cfa8f7676ff07189ecc53f80bbb5f4969099db890600090a295945050505050565b610e13611274565b8051610e1f9083610ecd565b5060006020820152919050565b610e398260038351610f47565b81516103549082611066565b8151610e529060c2611087565b506103ff8282604051602001610e6a91815260200190565b604051602081830303815290604052610ec0565b610e898160046110f0565b600181602001818151610e9c9190611970565b90525050565b610ead8160076110f0565b600181602001818151610e9c9190611983565b610e398260028351610f47565b604080518082019091526060815260006020820152610eed602083611996565b15610f1557610efd602083611996565b610f08906020611983565b610f129083611970565b91505b602080840183905260405180855260008152908184010181811015610f3957600080fd5b604052508290505b92915050565b6017816001600160401b031611610f73578251610f6d9060e0600585901b168317611087565b50505050565b60ff816001600160401b031611610fb3578251610f9b906018611fe0600586901b1617611087565b508251610f6d906001600160401b0383166001611107565b61ffff816001600160401b031611610ff4578251610fdc906019611fe0600586901b1617611087565b508251610f6d906001600160401b0383166002611107565b63ffffffff816001600160401b03161161103757825161101f90601a611fe0600586901b1617611087565b508251610f6d906001600160401b0383166004611107565b825161104e90601b611fe0600586901b1617611087565b508251610f6d906001600160401b0383166008611107565b6040805180820190915260608152600060208201526106928383845161118c565b60408051808201909152606081526000602082015282515160006110ac826001611970565b9050846020015182106110cd576110cd856110c88360026119b8565b61125d565b84516020838201018581535080518211156110e6578181525b5093949350505050565b815161035490601f611fe0600585901b1617611087565b604080518082019091526060815260006020820152835151600061112b8285611970565b9050856020015181111561114857611148866110c88360026119b8565b6000600161115886610100611ab3565b6111629190611983565b90508651828101878319825116178152508051831115611180578281525b50959695505050505050565b60408051808201909152606081526000602082015282518211156111af57600080fd5b83515160006111be8483611970565b905085602001518111156111db576111db866110c88360026119b8565b8551805183820160200191600091808511156111f5578482525b505050602086015b602086106112355780518252611214602083611970565b9150611221602082611970565b905061122e602087611983565b95506111fd565b51815160001960208890036101000a0190811690199190911617905250849150509392505050565b81516112698383610ecd565b50610f6d8382611066565b604051806040016040528061129c604051806040016040528060608152602001600081525090565b8152602001600081525090565b634e487b7160e01b600052604160045260246000fd5b604051601f8201601f191681016001600160401b03811182821017156112e7576112e76112a9565b604052919050565b60006001600160401b03831115611308576113086112a9565b61131b601f8401601f19166020016112bf565b905082815283838301111561132f57600080fd5b828260208301376000602084830101529392505050565b600082601f83011261135757600080fd5b610692838335602085016112ef565b60008060006060848603121561137b57600080fd5b8335925060208401356001600160401b038082111561139957600080fd5b6113a587838801611346565b935060408601359150808211156113bb57600080fd5b506113c886828701611346565b9150509250925092565b600080602083850312156113e557600080fd5b82356001600160401b03808211156113fc57600080fd5b818501915085601f83011261141057600080fd5b81358181111561141f57600080fd5b86602082850101111561143157600080fd5b60209290920196919550909350505050565b6000815180845260005b818110156114695760208185018101518683018201520161144d565b506000602082860101526020601f19601f83011685010191505092915050565b6020815260006106926020830184611443565b600080602083850312156114af57600080fd5b82356001600160401b03808211156114c657600080fd5b818501915085601f8301126114da57600080fd5b8135818111156114e957600080fd5b8660208260051b850101111561143157600080fd5b60006020828403121561151057600080fd5b81356001600160a01b038116811461069257600080fd5b60006020828403121561153957600080fd5b5035919050565b6000806040838503121561155357600080fd5b82356001600160401b038116811461156a57600080fd5b9150602083013563ffffffff8116811461158357600080fd5b809150509250929050565b600181811c908216806115a257607f821691505b6020821081036115c257634e487b7160e01b600052602260045260246000fd5b50919050565b601f82111561035457600081815260208120601f850160051c810160208610156115ef5750805b601f850160051c820191505b8181101561160e578281556001016115fb565b505050505050565b6001600160401b0383111561162d5761162d6112a9565b6116418361163b835461158e565b836115c8565b6000601f841160018114611675576000851561165d5750838201355b600019600387901b1c1916600186901b1783556116cf565b600083815260209020601f19861690835b828110156116a65786850135825560209485019460019092019101611686565b50868210156116c35760001960f88860031b161c19848701351681555b505060018560011b0183555b5050505050565b60208082526027908201527f4f6e6c7920436f6e74726163742041646d696e732043616e204d616b652054686040820152661a5cc810d85b1b60ca1b606082015260800190565b634e487b7160e01b600052603260045260246000fd5b634e487b7160e01b600052601160045260246000fd5b600060ff821660ff810361175f5761175f611733565b60010192915050565b81516001600160401b03811115611781576117816112a9565b6117958161178f845461158e565b846115c8565b602080601f8311600181146117ca57600084156117b25750858301515b600019600386901b1c1916600185901b17855561160e565b600085815260208120601f198616915b828110156117f9578886015182559484019460019091019084016117da565b50858210156118175787850151600019600388901b60f8161c191681555b5050505050600190811b01905550565b8281526040602082015260006118406040830184611443565b949350505050565b60006001600160401b0380841115611862576118626112a9565b8360051b60206118738183016112bf565b86815291850191818101903684111561188b57600080fd5b865b848110156118d3578035868111156118a55760008081fd5b880136601f8201126118b75760008081fd5b6118c53682358784016112ef565b84525091830191830161188d565b50979650505050505050565b634e487b7160e01b600052602160045260246000fd5b60006001820161190757611907611733565b5060010190565b6001600160401b038616815260a06020820152600061193060a0830187611443565b61ffff9590951660408301525063ffffffff92909216606083015260809091015292915050565b60006020828403121561196957600080fd5b5051919050565b80820180821115610f4157610f41611733565b81810381811115610f4157610f41611733565b6000826119b357634e487b7160e01b600052601260045260246000fd5b500690565b8082028115828204841417610f4157610f41611733565b600181815b80851115611a0a5781600019048211156119f0576119f0611733565b808516156119fd57918102915b93841c93908002906119d4565b509250929050565b600082611a2157506001610f41565b81611a2e57506000610f41565b8160018114611a445760028114611a4e57611a6a565b6001915050610f41565b60ff841115611a5f57611a5f611733565b50506001821b610f41565b5060208310610133831016604e8410600b8410161715611a8d575081810a610f41565b611a9783836119cf565b8060001904821115611aab57611aab611733565b029392505050565b60006106928383611a1256fea2646970667358221220265a5892beedee7b149fe1560bedadfa30bc2d29bc05a3f4e5699014087d8fae64736f6c63430008130033",
  "devdoc": {
    "kind": "dev",
    "methods": {
      "handleOracleFulfillment(bytes32,bytes,bytes)": {
        "details": "Either response or error parameter will be set, but never both.",
        "params": {
          "err": "Aggregated error either from the request's source code or from the execution pipeline.",
          "requestId": "The requestId returned by FunctionsClient.sendRequest().",
          "response": "Aggregated response from the request's source code."
        }
      },
      "setDonId(bytes32)": {
        "params": {
          "newDonId": "New DON ID"
        }
      }
    },
    "title": "Chainlink Functions example on-demand consumer contract example",
    "version": 1
  },
  "userdoc": {
    "kind": "user",
    "methods": {
      "acceptOwnership()": {
        "notice": "Allows an ownership transfer to be completed by the recipient."
      },
      "handleOracleFulfillment(bytes32,bytes,bytes)": {
        "notice": "Chainlink Functions response handler called by the Functions Router during fullilment from the designated transmitter node in an OCR round."
      },
      "owner()": {
        "notice": "Get the current owner"
      },
      "setDonId(bytes32)": {
        "notice": "Set the DON ID"
      },
      "transferOwnership(address)": {
        "notice": "Allows an owner to begin transferring ownership to a new address."
      }
    },
    "version": 1
  },
  "storageLayout": {
    "storage": [
      {
        "astId": 816,
        "contract": "contracts/APIConsumer.sol:APIConsumer",
        "label": "s_owner",
        "offset": 0,
        "slot": "0",
        "type": "t_address"
      },
      {
        "astId": 818,
        "contract": "contracts/APIConsumer.sol:APIConsumer",
        "label": "s_pendingOwner",
        "offset": 0,
        "slot": "1",
        "type": "t_address"
      },
      {
        "astId": 3638,
        "contract": "contracts/APIConsumer.sol:APIConsumer",
        "label": "donId",
        "offset": 0,
        "slot": "2",
        "type": "t_bytes32"
      },
      {
        "astId": 3640,
        "contract": "contracts/APIConsumer.sol:APIConsumer",
        "label": "s_lastRequestId",
        "offset": 0,
        "slot": "3",
        "type": "t_bytes32"
      },
      {
        "astId": 3642,
        "contract": "contracts/APIConsumer.sol:APIConsumer",
        "label": "s_lastResponse",
        "offset": 0,
        "slot": "4",
        "type": "t_bytes_storage"
      },
      {
        "astId": 3644,
        "contract": "contracts/APIConsumer.sol:APIConsumer",
        "label": "s_lastError",
        "offset": 0,
        "slot": "5",
        "type": "t_bytes_storage"
      },
      {
        "astId": 3646,
        "contract": "contracts/APIConsumer.sol:APIConsumer",
        "label": "_router",
        "offset": 0,
        "slot": "6",
        "type": "t_address"
      },
      {
        "astId": 3648,
        "contract": "contracts/APIConsumer.sol:APIConsumer",
        "label": "StravaCall",
        "offset": 0,
        "slot": "7",
        "type": "t_string_storage"
      },
      {
        "astId": 3650,
        "contract": "contracts/APIConsumer.sol:APIConsumer",
        "label": "subscriptionId",
        "offset": 0,
        "slot": "8",
        "type": "t_uint64"
      },
      {
        "astId": 3652,
        "contract": "contracts/APIConsumer.sol:APIConsumer",
        "label": "callbackGasLimit",
        "offset": 8,
        "slot": "8",
        "type": "t_uint32"
      },
      {
        "astId": 3654,
        "contract": "contracts/APIConsumer.sol:APIConsumer",
        "label": "contract_Admin",
        "offset": 12,
        "slot": "8",
        "type": "t_address"
      }
    ],
    "types": {
      "t_address": {
        "encoding": "inplace",
        "label": "address",
        "numberOfBytes": "20"
      },
      "t_bytes32": {
        "encoding": "inplace",
        "label": "bytes32",
        "numberOfBytes": "32"
      },
      "t_bytes_storage": {
        "encoding": "bytes",
        "label": "bytes",
        "numberOfBytes": "32"
      },
      "t_string_storage": {
        "encoding": "bytes",
        "label": "string",
        "numberOfBytes": "32"
      },
      "t_uint32": {
        "encoding": "inplace",
        "label": "uint32",
        "numberOfBytes": "4"
      },
      "t_uint64": {
        "encoding": "inplace",
        "label": "uint64",
        "numberOfBytes": "8"
      }
    }
  }
}