{
  "address": "0xD83E502fb420494A130d934B0586A94Ee2C10471",
  "abi": [
    {
      "inputs": [],
      "stateMutability": "nonpayable",
      "type": "constructor"
    },
    {
      "inputs": [],
      "name": "CHAINHABITS__ChallengeStillActive",
      "type": "error"
    },
    {
      "inputs": [],
      "name": "CHAINHABITS__InsufficientFunds",
      "type": "error"
    },
    {
      "inputs": [],
      "name": "CHAINHABITS__UserAlreadyRegistered",
      "type": "error"
    },
    {
      "inputs": [],
      "name": "CHAINHABITS__UserNotYetRegistered",
      "type": "error"
    },
    {
      "anonymous": false,
      "inputs": [
        {
          "indexed": true,
          "internalType": "uint256",
          "name": "challengeId",
          "type": "uint256"
        },
        {
          "indexed": true,
          "internalType": "address",
          "name": "user",
          "type": "address"
        },
        {
          "indexed": false,
          "internalType": "uint8",
          "name": "stakeForfeited",
          "type": "uint8"
        }
      ],
      "name": "ChallengeCompleted",
      "type": "event"
    },
    {
      "anonymous": false,
      "inputs": [
        {
          "indexed": true,
          "internalType": "address",
          "name": "user",
          "type": "address"
        },
        {
          "indexed": false,
          "internalType": "uint256",
          "name": "amount",
          "type": "uint256"
        }
      ],
      "name": "FundsWithdrawn",
      "type": "event"
    },
    {
      "anonymous": false,
      "inputs": [
        {
          "indexed": true,
          "internalType": "uint256",
          "name": "challengeId",
          "type": "uint256"
        },
        {
          "indexed": true,
          "internalType": "address",
          "name": "user",
          "type": "address"
        },
        {
          "indexed": true,
          "internalType": "string",
          "name": "Objective",
          "type": "string"
        },
        {
          "indexed": false,
          "internalType": "uint8",
          "name": "startingMiles",
          "type": "uint8"
        },
        {
          "indexed": false,
          "internalType": "uint8",
          "name": "NumberofWeeks",
          "type": "uint8"
        },
        {
          "indexed": false,
          "internalType": "uint48",
          "name": "challengeStartDate",
          "type": "uint48"
        },
        {
          "indexed": false,
          "internalType": "address",
          "name": "defaultAddress",
          "type": "address"
        }
      ],
      "name": "NewChallengeCreated",
      "type": "event"
    },
    {
      "anonymous": false,
      "inputs": [
        {
          "indexed": false,
          "internalType": "address",
          "name": "user",
          "type": "address"
        }
      ],
      "name": "NewUserRegistered",
      "type": "event"
    },
    {
      "anonymous": false,
      "inputs": [
        {
          "indexed": true,
          "internalType": "address",
          "name": "previousOwner",
          "type": "address"
        },
        {
          "indexed": true,
          "internalType": "address",
          "name": "newOwner",
          "type": "address"
        }
      ],
      "name": "OwnershipTransferred",
      "type": "event"
    },
    {
      "anonymous": false,
      "inputs": [
        {
          "indexed": true,
          "internalType": "uint256",
          "name": "challengeId",
          "type": "uint256"
        },
        {
          "indexed": true,
          "internalType": "address",
          "name": "user",
          "type": "address"
        },
        {
          "indexed": false,
          "internalType": "bool",
          "name": "success",
          "type": "bool"
        }
      ],
      "name": "intervalReviewCompleted",
      "type": "event"
    },
    {
      "inputs": [],
      "name": "admin",
      "outputs": [
        {
          "internalType": "address",
          "name": "",
          "type": "address"
        }
      ],
      "stateMutability": "view",
      "type": "function"
    },
    {
      "inputs": [
        {
          "internalType": "uint256",
          "name": "",
          "type": "uint256"
        }
      ],
      "name": "allUsers",
      "outputs": [
        {
          "internalType": "address",
          "name": "",
          "type": "address"
        }
      ],
      "stateMutability": "view",
      "type": "function"
    },
    {
      "inputs": [
        {
          "internalType": "string",
          "name": "_obj",
          "type": "string"
        },
        {
          "internalType": "uint8",
          "name": "_targetMiles",
          "type": "uint8"
        },
        {
          "internalType": "uint8",
          "name": "_weeks",
          "type": "uint8"
        },
        {
          "internalType": "address",
          "name": "_defaultAddress",
          "type": "address"
        }
      ],
      "name": "createNewChallenge",
      "outputs": [
        {
          "internalType": "uint256",
          "name": "challengeId",
          "type": "uint256"
        }
      ],
      "stateMutability": "payable",
      "type": "function"
    },
    {
      "inputs": [],
      "name": "getAllUserDetails",
      "outputs": [
        {
          "internalType": "address[]",
          "name": "",
          "type": "address[]"
        }
      ],
      "stateMutability": "view",
      "type": "function"
    },
    {
      "inputs": [
        {
          "internalType": "uint256",
          "name": "_challengeId",
          "type": "uint256"
        }
      ],
      "name": "getChallengeDetails",
      "outputs": [
        {
          "components": [
            {
              "internalType": "uint8",
              "name": "targetMiles",
              "type": "uint8"
            },
            {
              "internalType": "uint8",
              "name": "NoOfWeeks",
              "type": "uint8"
            },
            {
              "internalType": "uint8",
              "name": "failedWeeks",
              "type": "uint8"
            },
            {
              "internalType": "bool",
              "name": "isLive",
              "type": "bool"
            },
            {
              "internalType": "uint48",
              "name": "challengeStartDate",
              "type": "uint48"
            },
            {
              "internalType": "address",
              "name": "defaultAddress",
              "type": "address"
            }
          ],
          "internalType": "struct ChainHabits.ChallengeDetails",
          "name": "",
          "type": "tuple"
        }
      ],
      "stateMutability": "view",
      "type": "function"
    },
    {
      "inputs": [
        {
          "internalType": "address",
          "name": "_userAddress",
          "type": "address"
        }
      ],
      "name": "getChallengeId",
      "outputs": [
        {
          "internalType": "uint256",
          "name": "",
          "type": "uint256"
        }
      ],
      "stateMutability": "view",
      "type": "function"
    },
    {
      "inputs": [
        {
          "internalType": "address",
          "name": "_user",
          "type": "address"
        }
      ],
      "name": "getUserDetails",
      "outputs": [
        {
          "components": [
            {
              "internalType": "uint48",
              "name": "currentStaked",
              "type": "uint48"
            },
            {
              "internalType": "uint256",
              "name": "userID",
              "type": "uint256"
            },
            {
              "internalType": "string",
              "name": "refreshToken",
              "type": "string"
            }
          ],
          "internalType": "struct ChainHabits.UserDetails",
          "name": "",
          "type": "tuple"
        }
      ],
      "stateMutability": "view",
      "type": "function"
    },
    {
      "inputs": [
        {
          "internalType": "uint256",
          "name": "challengeId",
          "type": "uint256"
        },
        {
          "internalType": "uint8",
          "name": "stakeForfeited",
          "type": "uint8"
        },
        {
          "internalType": "address",
          "name": "userAddress",
          "type": "address"
        }
      ],
      "name": "handleCompleteChallenge",
      "outputs": [],
      "stateMutability": "nonpayable",
      "type": "function"
    },
    {
      "inputs": [
        {
          "internalType": "uint256",
          "name": "_challengeId",
          "type": "uint256"
        },
        {
          "internalType": "bool",
          "name": "failed",
          "type": "bool"
        }
      ],
      "name": "handleIntervalReview",
      "outputs": [],
      "stateMutability": "nonpayable",
      "type": "function"
    },
    {
      "inputs": [
        {
          "internalType": "address",
          "name": "",
          "type": "address"
        }
      ],
      "name": "isUserRegisteredTable",
      "outputs": [
        {
          "internalType": "bool",
          "name": "",
          "type": "bool"
        }
      ],
      "stateMutability": "view",
      "type": "function"
    },
    {
      "inputs": [],
      "name": "owner",
      "outputs": [
        {
          "internalType": "address",
          "name": "",
          "type": "address"
        }
      ],
      "stateMutability": "view",
      "type": "function"
    },
    {
      "inputs": [
        {
          "internalType": "uint256",
          "name": "userID",
          "type": "uint256"
        },
        {
          "internalType": "string",
          "name": "_refreshToken",
          "type": "string"
        }
      ],
      "name": "registerNewUser",
      "outputs": [],
      "stateMutability": "nonpayable",
      "type": "function"
    },
    {
      "inputs": [],
      "name": "renounceOwnership",
      "outputs": [],
      "stateMutability": "nonpayable",
      "type": "function"
    },
    {
      "inputs": [
        {
          "internalType": "address",
          "name": "newOwner",
          "type": "address"
        }
      ],
      "name": "transferOwnership",
      "outputs": [],
      "stateMutability": "nonpayable",
      "type": "function"
    },
    {
      "inputs": [
        {
          "internalType": "address",
          "name": "_user",
          "type": "address"
        },
        {
          "internalType": "string",
          "name": "_refreshToken",
          "type": "string"
        }
      ],
      "name": "updateRefreshToken",
      "outputs": [],
      "stateMutability": "nonpayable",
      "type": "function"
    },
    {
      "inputs": [
        {
          "internalType": "address",
          "name": "",
          "type": "address"
        }
      ],
      "name": "userHasLiveChallenge",
      "outputs": [
        {
          "internalType": "bool",
          "name": "",
          "type": "bool"
        }
      ],
      "stateMutability": "view",
      "type": "function"
    },
    {
      "inputs": [],
      "name": "withdrawFunds",
      "outputs": [],
      "stateMutability": "nonpayable",
      "type": "function"
    }
  ],
  "transactionHash": "0x58f82e19a5831eaea13b7942328e1a779647963e3e57dcb3db1505e32e3258d7",
  "args": [],
  "numDeployments": 6,
  "solcInputHash": "4ab22af9a3eda1ea09733b0f5d04c6f8",
  "bytecode": "0x608060405234801561001057600080fd5b50600160005561001f33610024565b610076565b600180546001600160a01b038381166001600160a01b0319831681179093556040519116919082907f8be0079c531659141344cd1fd0a4f28419497f9722a3daafe3b4186f6b6457e090600090a35050565b6118c1806100856000396000f3fe6080604052600436106100fe5760003560e01c8063addb889d11610095578063e30a392411610064578063e30a3924146103d2578063f2fde38b14610408578063f851a44014610428578063f9643e4e14610448578063fb24a7031461046a57600080fd5b8063addb889d14610315578063cc3d967b14610355578063d0a2a94014610382578063d3593827146103b257600080fd5b80638da5cb5b116100d15780638da5cb5b14610282578063937681b8146102b4578063956924e6146102d5578063a2bdedf4146102f557600080fd5b80630d63efa71461010357806324600fc3146101255780633d40a54f1461013a578063715018a61461026d575b600080fd5b34801561010f57600080fd5b5061012361011e366004611334565b61048a565b005b34801561013157600080fd5b506101236104be565b34801561014657600080fd5b50610207610155366004611387565b6040805160c081018252600080825260208201819052918101829052606081018290526080810182905260a081019190915250600090815260086020908152604091829020825160c081018452905460ff808216835261010082048116938301939093526201000081048316938201939093526301000000830490911615156060820152640100000000820465ffffffffffff166080820152600160501b9091046001600160a01b031660a082015290565b60408051825160ff908116825260208085015182169083015283830151169181019190915260608083015115159082015260808083015165ffffffffffff169082015260a0918201516001600160a01b03169181019190915260c0015b60405180910390f35b34801561027957600080fd5b50610123610704565b34801561028e57600080fd5b506001546001600160a01b03165b6040516001600160a01b039091168152602001610264565b6102c76102c23660046113b1565b610716565b604051908152602001610264565b3480156102e157600080fd5b506101236102f0366004611427565b61092c565b34801561030157600080fd5b5061029c610310366004611387565b610a70565b34801561032157600080fd5b5061034561033036600461145c565b60056020526000908152604090205460ff1681565b6040519015158152602001610264565b34801561036157600080fd5b5061037561037036600461145c565b610a9a565b60405161026491906114c4565b34801561038e57600080fd5b5061034561039d36600461145c565b60066020526000908152604090205460ff1681565b3480156103be57600080fd5b506101236103cd366004611503565b610b8c565b3480156103de57600080fd5b506102c76103ed36600461145c565b6001600160a01b031660009081526009602052604090205490565b34801561041457600080fd5b5061012361042336600461145c565b610f16565b34801561043457600080fd5b5060035461029c906001600160a01b031681565b34801561045457600080fd5b5061045d610f8f565b604051610264919061153f565b34801561047657600080fd5b5061012361048536600461158c565b610ff1565b61049261115c565b6001600160a01b03831660009081526007602052604090206002016104b882848361165e565b50505050565b6104c66111b6565b3360008181526005602052604090205460ff166104f657604051632ac0e50f60e11b815260040160405180910390fd5b3360009081526007602090815260408083208151606081018352815465ffffffffffff168152600182015493810193909352600281018054919284019161053c906115d5565b80601f0160208091040260200160405190810160405280929190818152602001828054610568906115d5565b80156105b55780601f1061058a576101008083540402835291602001916105b5565b820191906000526020600020905b81548152906001019060200180831161059857829003601f168201915b505050919092525050336000908152600660205260409020549192505060ff16156105f3576040516327562e6160e11b815260040160405180910390fd5b805165ffffffffffff811660000361061e576040516329bd6d0160e01b815260040160405180910390fd5b6000808352604051339065ffffffffffff8416908381818185875af1925050503d806000811461066a576040519150601f19603f3d011682016040523d82523d6000602084013e61066f565b606091505b50509050806106b75760405162461bcd60e51b815260206004820152600f60248201526e151c985b9cd9995c8819985a5b1959608a1b60448201526064015b60405180910390fd5b60405165ffffffffffff8316815233907feaff4b37086828766ad3268786972c0cd24259d4c87a80f9d3963a3c3d999b0d9060200160405180910390a2505050506107026001600055565b565b61070c61115c565b610702600061120f565b3360008181526005602052604081205490919060ff1661074957604051632ac0e50f60e11b815260040160405180910390fd5b610757600280546001019055565b6002546040805160c08101825260ff80891682528781166020808401918252600084860181815260016060870190815265ffffffffffff428116608089019081526001600160a01b03808f1660a08b019081528c8752600888528b87209a518b5499519651955193519151909216600160501b02600160501b600160f01b03199185166401000000000291909116640100000000600160f01b031993151563010000000263ff00000019968c1662010000029690961663ffff000019978c166101000261ffff19909b1693909b16929092179890981794909416979097179190911795909516179290921790935533815260098352838120859055600790925291812080549395503493909261086f91859116611735565b825465ffffffffffff9182166101009390930a9283029190920219909116179055503360009081526006602052604090819020805460ff19166001179055516108bb908890889061175b565b6040805191829003822060ff8881168452871660208401524265ffffffffffff16838301526001600160a01b038616606084015290519091339185917f83af8befef6e67d7d2edf9c438cc8110a39affc2c29d69b13c4c61fbae47b7b8919081900360800190a45095945050505050565b61093461115c565b6040805160c081018252600080825260208201819052918101829052606081018290526080810182905260a08101919091528115610983576040810180519061097c8261176b565b60ff169052505b6109b66040518060400160405280600a8152602001696661696c65647765656b60b01b815250826040015160ff16611261565b6000928352600860209081526040938490208251815492840151958401516060850151608086015160a0909601516001600160a01b0316600160501b02600160501b600160f01b031965ffffffffffff9097166401000000000296909616640100000000600160f01b031991151563010000000263ff0000001960ff94851662010000021663ffff0000199a85166101000261ffff1990981694909516939093179590951797909716919091171794909416171790915550565b60048181548110610a8057600080fd5b6000918252602090912001546001600160a01b0316905081565b6040805160608082018352600080835260208084018290528385018390526001600160a01b0386168252600781529084902084519283018552805465ffffffffffff168352600181015491830191909152600281018054939492939192840191610b03906115d5565b80601f0160208091040260200160405190810160405280929190818152602001828054610b2f906115d5565b8015610b7c5780601f10610b5157610100808354040283529160200191610b7c565b820191906000526020600020905b815481529060010190602001808311610b5f57829003601f168201915b5050505050815250509050919050565b610b9461115c565b600083815260086020908152604091829020825160c081018452905460ff8082168352610100820481169383019390935262010000810483169382019390935263010000008304821615156060820152640100000000830465ffffffffffff166080820152600160501b9092046001600160a01b031660a0830152831615610e415760008160a001516001600160a01b03168460ff1660405160006040518083038185875af1925050503d8060008114610c6a576040519150601f19603f3d011682016040523d82523d6000602084013e610c6f565b606091505b5050905080610cb55760405162461bcd60e51b81526020600482015260126024820152710ccc2d2d8cac840e8de40e6cadcc840cae8d60731b60448201526064016106ae565b6001600160a01b03831660009081526007602090815260408083208151606081018352815465ffffffffffff1681526001820154938101939093526002810180549192840191610d04906115d5565b80601f0160208091040260200160405190810160405280929190818152602001828054610d30906115d5565b8015610d7d5780601f10610d5257610100808354040283529160200191610d7d565b820191906000526020600020905b815481529060010190602001808311610d6057829003601f168201915b50505050508152505090508460ff1681600001818151610d9d919061178a565b65ffffffffffff9081169091526001600160a01b0386166000908152600760209081526040918290208551815465ffffffffffff1916941693909317835584015160018301558301518392506002820190610df890826117a9565b505060405160ff871681526001600160a01b038616915087907f8ae589da3f84f4e79e93cb80f4addfed0e01b8dd731392a8b86e10ec8856e92c9060200160405180910390a350505b336000908152600660209081526040808320805460ff191690556060840183815296835260088252918290208351815492850151938501519751608086015160a0909601516001600160a01b0316600160501b02600160501b600160f01b031965ffffffffffff9097166401000000000296909616640100000000600160f01b031991151563010000000263ff0000001960ff9b8c1662010000021663ffff000019978c166101000261ffff1990971694909b1693909317949094179490941697909717969096179190911617179092555050565b610f1e61115c565b6001600160a01b038116610f835760405162461bcd60e51b815260206004820152602660248201527f4f776e61626c653a206e6577206f776e657220697320746865207a65726f206160448201526564647265737360d01b60648201526084016106ae565b610f8c8161120f565b50565b60606004805480602002602001604051908101604052809291908181526020018280548015610fe757602002820191906000526020600020905b81546001600160a01b03168152600190910190602001808311610fc9575b5050505050905090565b3360008181526005602052604090205460ff161561102257604051632f22a0e560e01b815260040160405180910390fd5b6040518060600160405280600065ffffffffffff16815260200185815260200184848080601f0160208091040260200160405190810160405280939291908181526020018383808284376000920182905250939094525050338152600760209081526040918290208451815465ffffffffffff191665ffffffffffff9091161781559084015160018201559083015190915060028201906110c390826117a9565b5050336000818152600560209081526040808320805460ff191660019081179091556004805491820181559093527f8a35acfbc15ff81a39ae7d344fd709f28e8600b4aa8c65c6b64bfe7fe36bd19b90920180546001600160a01b0319168417905590519182527ff382cb45b37e0f2786ad5a8328040a5c6a63584130f9076ba1627d420ffadc8b92500160405180910390a150505050565b6001546001600160a01b031633146107025760405162461bcd60e51b815260206004820181905260248201527f4f776e61626c653a2063616c6c6572206973206e6f7420746865206f776e657260448201526064016106ae565b6002600054036112085760405162461bcd60e51b815260206004820152601f60248201527f5265656e7472616e637947756172643a207265656e7472616e742063616c6c0060448201526064016106ae565b6002600055565b600180546001600160a01b038381166001600160a01b0319831681179093556040519116919082907f8be0079c531659141344cd1fd0a4f28419497f9722a3daafe3b4186f6b6457e090600090a35050565b6112a68282604051602401611277929190611869565b60408051601f198184030181529190526020810180516001600160e01b0316632d839cb360e21b1790526112aa565b5050565b610f8c8160006a636f6e736f6c652e6c6f679050600080835160208501845afa505050565b80356001600160a01b03811681146112e657600080fd5b919050565b60008083601f8401126112fd57600080fd5b50813567ffffffffffffffff81111561131557600080fd5b60208301915083602082850101111561132d57600080fd5b9250929050565b60008060006040848603121561134957600080fd5b611352846112cf565b9250602084013567ffffffffffffffff81111561136e57600080fd5b61137a868287016112eb565b9497909650939450505050565b60006020828403121561139957600080fd5b5035919050565b803560ff811681146112e657600080fd5b6000806000806000608086880312156113c957600080fd5b853567ffffffffffffffff8111156113e057600080fd5b6113ec888289016112eb565b90965094506113ff9050602087016113a0565b925061140d604087016113a0565b915061141b606087016112cf565b90509295509295909350565b6000806040838503121561143a57600080fd5b823591506020830135801515811461145157600080fd5b809150509250929050565b60006020828403121561146e57600080fd5b611477826112cf565b9392505050565b6000815180845260005b818110156114a457602081850181015186830182015201611488565b506000602082860101526020601f19601f83011685010191505092915050565b6020815265ffffffffffff825116602082015260208201516040820152600060408301516060808401526114fb608084018261147e565b949350505050565b60008060006060848603121561151857600080fd5b83359250611528602085016113a0565b9150611536604085016112cf565b90509250925092565b6020808252825182820181905260009190848201906040850190845b818110156115805783516001600160a01b03168352928401929184019160010161155b565b50909695505050505050565b6000806000604084860312156115a157600080fd5b83359250602084013567ffffffffffffffff81111561136e57600080fd5b634e487b7160e01b600052604160045260246000fd5b600181811c908216806115e957607f821691505b60208210810361160957634e487b7160e01b600052602260045260246000fd5b50919050565b601f82111561165957600081815260208120601f850160051c810160208610156116365750805b601f850160051c820191505b8181101561165557828155600101611642565b5050505b505050565b67ffffffffffffffff831115611676576116766115bf565b61168a8361168483546115d5565b8361160f565b6000601f8411600181146116be57600085156116a65750838201355b600019600387901b1c1916600186901b178355611718565b600083815260209020601f19861690835b828110156116ef57868501358255602094850194600190920191016116cf565b508682101561170c5760001960f88860031b161c19848701351681555b505060018560011b0183555b5050505050565b634e487b7160e01b600052601160045260246000fd5b65ffffffffffff8181168382160190808211156117545761175461171f565b5092915050565b8183823760009101908152919050565b600060ff821660ff81036117815761178161171f565b60010192915050565b65ffffffffffff8281168282160390808211156117545761175461171f565b815167ffffffffffffffff8111156117c3576117c36115bf565b6117d7816117d184546115d5565b8461160f565b602080601f83116001811461180c57600084156117f45750858301515b600019600386901b1c1916600185901b178555611655565b600085815260208120601f198616915b8281101561183b5788860151825594840194600190910190840161181c565b50858210156118595787850151600019600388901b60f8161c191681555b5050505050600190811b01905550565b60408152600061187c604083018561147e565b9050826020830152939250505056fea2646970667358221220716ad43a0469602d7f3fc5b332757176cd8ed929008063e713a721a341e4fc7764736f6c63430008130033",
  "devdoc": {
    "kind": "dev",
    "methods": {
      "owner()": {
        "details": "Returns the address of the current owner."
      },
      "renounceOwnership()": {
        "details": "Leaves the contract without owner. It will not be possible to call `onlyOwner` functions. Can only be called by the current owner. NOTE: Renouncing ownership will leave the contract without an owner, thereby disabling any functionality that is only available to the owner."
      },
      "transferOwnership(address)": {
        "details": "Transfers ownership of the contract to a new account (`newOwner`). Can only be called by the current owner."
      }
    },
    "version": 1
  },
  "userdoc": {
    "kind": "user",
    "methods": {},
    "version": 1
  },
  "storageLayout": {
    "storage": [
      {
        "astId": 123,
        "contract": "contracts/ChainHabits.sol:ChainHabits",
        "label": "_status",
        "offset": 0,
        "slot": "0",
        "type": "t_uint256"
      },
      {
        "astId": 7,
        "contract": "contracts/ChainHabits.sol:ChainHabits",
        "label": "_owner",
        "offset": 0,
        "slot": "1",
        "type": "t_address"
      },
      {
        "astId": 337,
        "contract": "contracts/ChainHabits.sol:ChainHabits",
        "label": "_challengeIdCounter",
        "offset": 0,
        "slot": "2",
        "type": "t_struct(Counter)213_storage"
      },
      {
        "astId": 339,
        "contract": "contracts/ChainHabits.sol:ChainHabits",
        "label": "admin",
        "offset": 0,
        "slot": "3",
        "type": "t_address"
      },
      {
        "astId": 342,
        "contract": "contracts/ChainHabits.sol:ChainHabits",
        "label": "allUsers",
        "offset": 0,
        "slot": "4",
        "type": "t_array(t_address)dyn_storage"
      },
      {
        "astId": 366,
        "contract": "contracts/ChainHabits.sol:ChainHabits",
        "label": "isUserRegisteredTable",
        "offset": 0,
        "slot": "5",
        "type": "t_mapping(t_address,t_bool)"
      },
      {
        "astId": 370,
        "contract": "contracts/ChainHabits.sol:ChainHabits",
        "label": "userHasLiveChallenge",
        "offset": 0,
        "slot": "6",
        "type": "t_mapping(t_address,t_bool)"
      },
      {
        "astId": 375,
        "contract": "contracts/ChainHabits.sol:ChainHabits",
        "label": "userTable",
        "offset": 0,
        "slot": "7",
        "type": "t_mapping(t_address,t_struct(UserDetails)349_storage)"
      },
      {
        "astId": 380,
        "contract": "contracts/ChainHabits.sol:ChainHabits",
        "label": "challengeTable",
        "offset": 0,
        "slot": "8",
        "type": "t_mapping(t_uint256,t_struct(ChallengeDetails)362_storage)"
      },
      {
        "astId": 384,
        "contract": "contracts/ChainHabits.sol:ChainHabits",
        "label": "usersCurrentChallenge",
        "offset": 0,
        "slot": "9",
        "type": "t_mapping(t_address,t_uint256)"
      }
    ],
    "types": {
      "t_address": {
        "encoding": "inplace",
        "label": "address",
        "numberOfBytes": "20"
      },
      "t_array(t_address)dyn_storage": {
        "base": "t_address",
        "encoding": "dynamic_array",
        "label": "address[]",
        "numberOfBytes": "32"
      },
      "t_bool": {
        "encoding": "inplace",
        "label": "bool",
        "numberOfBytes": "1"
      },
      "t_mapping(t_address,t_bool)": {
        "encoding": "mapping",
        "key": "t_address",
        "label": "mapping(address => bool)",
        "numberOfBytes": "32",
        "value": "t_bool"
      },
      "t_mapping(t_address,t_struct(UserDetails)349_storage)": {
        "encoding": "mapping",
        "key": "t_address",
        "label": "mapping(address => struct ChainHabits.UserDetails)",
        "numberOfBytes": "32",
        "value": "t_struct(UserDetails)349_storage"
      },
      "t_mapping(t_address,t_uint256)": {
        "encoding": "mapping",
        "key": "t_address",
        "label": "mapping(address => uint256)",
        "numberOfBytes": "32",
        "value": "t_uint256"
      },
      "t_mapping(t_uint256,t_struct(ChallengeDetails)362_storage)": {
        "encoding": "mapping",
        "key": "t_uint256",
        "label": "mapping(uint256 => struct ChainHabits.ChallengeDetails)",
        "numberOfBytes": "32",
        "value": "t_struct(ChallengeDetails)362_storage"
      },
      "t_string_storage": {
        "encoding": "bytes",
        "label": "string",
        "numberOfBytes": "32"
      },
      "t_struct(ChallengeDetails)362_storage": {
        "encoding": "inplace",
        "label": "struct ChainHabits.ChallengeDetails",
        "members": [
          {
            "astId": 351,
            "contract": "contracts/ChainHabits.sol:ChainHabits",
            "label": "targetMiles",
            "offset": 0,
            "slot": "0",
            "type": "t_uint8"
          },
          {
            "astId": 353,
            "contract": "contracts/ChainHabits.sol:ChainHabits",
            "label": "NoOfWeeks",
            "offset": 1,
            "slot": "0",
            "type": "t_uint8"
          },
          {
            "astId": 355,
            "contract": "contracts/ChainHabits.sol:ChainHabits",
            "label": "failedWeeks",
            "offset": 2,
            "slot": "0",
            "type": "t_uint8"
          },
          {
            "astId": 357,
            "contract": "contracts/ChainHabits.sol:ChainHabits",
            "label": "isLive",
            "offset": 3,
            "slot": "0",
            "type": "t_bool"
          },
          {
            "astId": 359,
            "contract": "contracts/ChainHabits.sol:ChainHabits",
            "label": "challengeStartDate",
            "offset": 4,
            "slot": "0",
            "type": "t_uint48"
          },
          {
            "astId": 361,
            "contract": "contracts/ChainHabits.sol:ChainHabits",
            "label": "defaultAddress",
            "offset": 10,
            "slot": "0",
            "type": "t_address"
          }
        ],
        "numberOfBytes": "32"
      },
      "t_struct(Counter)213_storage": {
        "encoding": "inplace",
        "label": "struct Counters.Counter",
        "members": [
          {
            "astId": 212,
            "contract": "contracts/ChainHabits.sol:ChainHabits",
            "label": "_value",
            "offset": 0,
            "slot": "0",
            "type": "t_uint256"
          }
        ],
        "numberOfBytes": "32"
      },
      "t_struct(UserDetails)349_storage": {
        "encoding": "inplace",
        "label": "struct ChainHabits.UserDetails",
        "members": [
          {
            "astId": 344,
            "contract": "contracts/ChainHabits.sol:ChainHabits",
            "label": "currentStaked",
            "offset": 0,
            "slot": "0",
            "type": "t_uint48"
          },
          {
            "astId": 346,
            "contract": "contracts/ChainHabits.sol:ChainHabits",
            "label": "userID",
            "offset": 0,
            "slot": "1",
            "type": "t_uint256"
          },
          {
            "astId": 348,
            "contract": "contracts/ChainHabits.sol:ChainHabits",
            "label": "refreshToken",
            "offset": 0,
            "slot": "2",
            "type": "t_string_storage"
          }
        ],
        "numberOfBytes": "96"
      },
      "t_uint256": {
        "encoding": "inplace",
        "label": "uint256",
        "numberOfBytes": "32"
      },
      "t_uint48": {
        "encoding": "inplace",
        "label": "uint48",
        "numberOfBytes": "6"
      },
      "t_uint8": {
        "encoding": "inplace",
        "label": "uint8",
        "numberOfBytes": "1"
      }
    }
  }
}