{
  "address": "0x2ad58A9B619583a0B32B690e5AEbae5FaB9f51DA",
  "abi": [
    {
      "inputs": [],
      "stateMutability": "nonpayable",
      "type": "constructor"
    },
    {
      "inputs": [],
      "name": "CHAINHABITS__UserAlreadyRegistered",
      "type": "error"
    },
    {
      "inputs": [],
      "name": "CHAINHABITS__UserNotYetRegistered",
      "type": "error"
    },
    {
      "inputs": [],
      "name": "CHAINHABITS__UsernameTaken",
      "type": "error"
    },
    {
      "anonymous": false,
      "inputs": [
        {
          "indexed": false,
          "internalType": "string",
          "name": "Objective",
          "type": "string"
        },
        {
          "indexed": false,
          "internalType": "uint8",
          "name": "startingMiles",
          "type": "uint8"
        },
        {
          "indexed": false,
          "internalType": "uint8",
          "name": "NumberofWeeks",
          "type": "uint8"
        },
        {
          "indexed": false,
          "internalType": "uint256",
          "name": "Deadline",
          "type": "uint256"
        }
      ],
      "name": "NewChallengeCreated",
      "type": "event"
    },
    {
      "anonymous": false,
      "inputs": [
        {
          "indexed": false,
          "internalType": "address",
          "name": "user",
          "type": "address"
        },
        {
          "indexed": false,
          "internalType": "string",
          "name": "username",
          "type": "string"
        }
      ],
      "name": "NewUserRegistered",
      "type": "event"
    },
    {
      "inputs": [],
      "name": "admin",
      "outputs": [
        {
          "internalType": "address",
          "name": "",
          "type": "address"
        }
      ],
      "stateMutability": "view",
      "type": "function"
    },
    {
      "inputs": [
        {
          "internalType": "string",
          "name": "_obj",
          "type": "string"
        },
        {
          "internalType": "uint8",
          "name": "_startingMiles",
          "type": "uint8"
        },
        {
          "internalType": "uint8",
          "name": "_weeks",
          "type": "uint8"
        }
      ],
      "name": "createNewChallenge",
      "outputs": [
        {
          "internalType": "uint256",
          "name": "",
          "type": "uint256"
        }
      ],
      "stateMutability": "payable",
      "type": "function"
    },
    {
      "inputs": [
        {
          "internalType": "uint256",
          "name": "_challengeId",
          "type": "uint256"
        }
      ],
      "name": "getChallengeDetails",
      "outputs": [
        {
          "components": [
            {
              "internalType": "string",
              "name": "objective",
              "type": "string"
            },
            {
              "internalType": "uint8",
              "name": "startingMiles",
              "type": "uint8"
            },
            {
              "internalType": "uint8",
              "name": "NoOfWeeks",
              "type": "uint8"
            },
            {
              "internalType": "bool",
              "name": "isLive",
              "type": "bool"
            },
            {
              "internalType": "uint256",
              "name": "deadline",
              "type": "uint256"
            }
          ],
          "internalType": "struct ChainHabits.ChallengeDetails",
          "name": "",
          "type": "tuple"
        }
      ],
      "stateMutability": "view",
      "type": "function"
    },
    {
      "inputs": [
        {
          "internalType": "address",
          "name": "_user",
          "type": "address"
        }
      ],
      "name": "getUserDetails",
      "outputs": [
        {
          "components": [
            {
              "internalType": "string",
              "name": "username",
              "type": "string"
            },
            {
              "internalType": "uint256",
              "name": "challengeTally",
              "type": "uint256"
            },
            {
              "internalType": "uint256",
              "name": "SuccessfulChallenges",
              "type": "uint256"
            },
            {
              "internalType": "uint256",
              "name": "TotalStaked",
              "type": "uint256"
            },
            {
              "internalType": "uint256",
              "name": "TotalDonated",
              "type": "uint256"
            },
            {
              "internalType": "uint256",
              "name": "userID",
              "type": "uint256"
            },
            {
              "internalType": "string",
              "name": "accessToken",
              "type": "string"
            },
            {
              "internalType": "string",
              "name": "refreshToken",
              "type": "string"
            }
          ],
          "internalType": "struct ChainHabits.UserDetails",
          "name": "",
          "type": "tuple"
        }
      ],
      "stateMutability": "view",
      "type": "function"
    },
    {
      "inputs": [
        {
          "internalType": "string",
          "name": "",
          "type": "string"
        }
      ],
      "name": "isUserNameTaken",
      "outputs": [
        {
          "internalType": "bool",
          "name": "",
          "type": "bool"
        }
      ],
      "stateMutability": "view",
      "type": "function"
    },
    {
      "inputs": [
        {
          "internalType": "address",
          "name": "",
          "type": "address"
        }
      ],
      "name": "isUserRegisteredTable",
      "outputs": [
        {
          "internalType": "bool",
          "name": "",
          "type": "bool"
        }
      ],
      "stateMutability": "view",
      "type": "function"
    },
    {
      "inputs": [
        {
          "internalType": "string",
          "name": "_username",
          "type": "string"
        },
        {
          "internalType": "uint256",
          "name": "userID",
          "type": "uint256"
        },
        {
          "internalType": "string",
          "name": "_accessToken",
          "type": "string"
        },
        {
          "internalType": "string",
          "name": "_refreshToken",
          "type": "string"
        }
      ],
      "name": "registerNewUser",
      "outputs": [],
      "stateMutability": "nonpayable",
      "type": "function"
    }
  ],
  "transactionHash": "0x965ebafa591a33faf7c8283dac8119fddf45f16a3f24377a6684a1f36898651c",
  "args": [],
  "numDeployments": 1,
  "solcInputHash": "5fea110bb5fbfb6aab7d7e4d42f2c921",
  "bytecode": "0x608060405234801561001057600080fd5b50600180546001600160a01b03191633179055610f3d806100326000396000f3fe6080604052600436106100705760003560e01c8063addb889d1161004e578063addb889d14610117578063cc3d967b14610147578063f851a44014610174578063fbb1455f146101ac57600080fd5b80633d40a54f146100755780633d4a068d146100ab5780635f5dc345146100f6575b600080fd5b34801561008157600080fd5b5061009561009036600461090a565b6101ce565b6040516100a29190610969565b60405180910390f35b3480156100b757600080fd5b506100e66100c63660046109d7565b805160208183018101805160028252928201919093012091525460ff1681565b60405190151581526020016100a2565b610109610104366004610ae7565b6102de565b6040519081526020016100a2565b34801561012357600080fd5b506100e6610132366004610b4c565b60036020526000908152604090205460ff1681565b34801561015357600080fd5b50610167610162366004610b4c565b610485565b6040516100a29190610b7c565b34801561018057600080fd5b50600154610194906001600160a01b031681565b6040516001600160a01b0390911681526020016100a2565b3480156101b857600080fd5b506101cc6101c7366004610c12565b6106df565b005b6040805160a08101825260608082526000602083018190529282018390528101829052608081019190915260008281526005602052604090819020815160a0810190925280548290829061022190610cb6565b80601f016020809104026020016040519081016040528092919081815260200182805461024d90610cb6565b801561029a5780601f1061026f5761010080835404028352916020019161029a565b820191906000526020600020905b81548152906001019060200180831161027d57829003601f168201915b5050509183525050600182015460ff808216602084015261010082048116604084015262010000909104161515606082015260029091015460809091015292915050565b3360008181526003602052604081205490919060ff1661031157604051632ac0e50f60e11b815260040160405180910390fd5b600080549081908061032283610d06565b909155506000905061033a60ff861662093a80610d1f565b6103499062ffffff1642610d46565b6040805160c06020601f8c01819004028201810190925260a081018a81529293509182918b908b9081908501838280828437600092018290525093855250505060ff808a166020808501919091529089166040808501919091526001606085015260809093018590528582526005905220815181906103c89082610dae565b506020828101516001808401805460408088015160608901511515620100000262ff00001960ff9283166101000261ffff19909516929097169190911792909217949094161790556080909401516002909301929092553360009081526006825282812080549485018155815220909101839055517f977560e53e20989d216e3986d05a29d88d4614e549c5022dba2a3221e85fc02a90610472908a908a908a908a908790610e97565b60405180910390a1509695505050505050565b6104cd60405180610100016040528060608152602001600081526020016000815260200160008152602001600081526020016000815260200160608152602001606081525090565b6001600160a01b038216600090815260046020526040908190208151610100810190925280548290829061050090610cb6565b80601f016020809104026020016040519081016040528092919081815260200182805461052c90610cb6565b80156105795780601f1061054e57610100808354040283529160200191610579565b820191906000526020600020905b81548152906001019060200180831161055c57829003601f168201915b5050505050815260200160018201548152602001600282015481526020016003820154815260200160048201548152602001600582015481526020016006820180546105c490610cb6565b80601f01602080910402602001604051908101604052809291908181526020018280546105f090610cb6565b801561063d5780601f106106125761010080835404028352916020019161063d565b820191906000526020600020905b81548152906001019060200180831161062057829003601f168201915b5050505050815260200160078201805461065690610cb6565b80601f016020809104026020016040519081016040528092919081815260200182805461068290610cb6565b80156106cf5780601f106106a4576101008083540402835291602001916106cf565b820191906000526020600020905b8154815290600101906020018083116106b257829003601f168201915b5050505050815250509050919050565b3360008181526003602052604090205460ff161561071057604051632f22a0e560e01b815260040160405180910390fd5b60028888604051610722929190610ec9565b9081526040519081900360200190205460ff161561075357604051637cb547f560e11b815260040160405180910390fd5b60405180610100016040528089898080601f01602080910402602001604051908101604052809392919081815260200183838082843760009201829052509385525050506020808301829052604080840183905260608401839052608084019290925260a083018a90528151601f890182900482028101820190925287825260c0909201918890889081908401838280828437600092019190915250505090825250604080516020601f87018190048102820181019092528581529181019190869086908190840183828082843760009201829052509390945250503381526004602052604090208251909150819061084c9082610dae565b506020820151600182015560408201516002820155606082015160038201556080820151600482015560a0820151600582015560c082015160068201906108939082610dae565b5060e082015160078201906108a89082610dae565b50503360008181526003602052604090819020805460ff19166001179055517f1d2b3529f3edbf84c2fbf46a16fa81880bd170f19142f18267f113903389a6dc92506108f891908b908b90610ed9565b60405180910390a15050505050505050565b60006020828403121561091c57600080fd5b5035919050565b6000815180845260005b818110156109495760208185018101518683018201520161092d565b506000602082860101526020601f19601f83011685010191505092915050565b602081526000825160a0602084015261098560c0840182610923565b905060ff602085015116604084015260ff6040850151166060840152606084015115156080840152608084015160a08401528091505092915050565b634e487b7160e01b600052604160045260246000fd5b6000602082840312156109e957600080fd5b813567ffffffffffffffff80821115610a0157600080fd5b818401915084601f830112610a1557600080fd5b813581811115610a2757610a276109c1565b604051601f8201601f19908116603f01168101908382118183101715610a4f57610a4f6109c1565b81604052828152876020848701011115610a6857600080fd5b826020860160208301376000928101602001929092525095945050505050565b60008083601f840112610a9a57600080fd5b50813567ffffffffffffffff811115610ab257600080fd5b602083019150836020828501011115610aca57600080fd5b9250929050565b803560ff81168114610ae257600080fd5b919050565b60008060008060608587031215610afd57600080fd5b843567ffffffffffffffff811115610b1457600080fd5b610b2087828801610a88565b9095509350610b33905060208601610ad1565b9150610b4160408601610ad1565b905092959194509250565b600060208284031215610b5e57600080fd5b81356001600160a01b0381168114610b7557600080fd5b9392505050565b6020815260008251610100806020850152610b9b610120850183610923565b9150602085015160408501526040850151606085015260608501516080850152608085015160a085015260a085015160c085015260c0850151601f19808685030160e0870152610beb8483610923565b935060e0870151915080868503018387015250610c088382610923565b9695505050505050565b60008060008060008060006080888a031215610c2d57600080fd5b873567ffffffffffffffff80821115610c4557600080fd5b610c518b838c01610a88565b909950975060208a0135965060408a0135915080821115610c7157600080fd5b610c7d8b838c01610a88565b909650945060608a0135915080821115610c9657600080fd5b50610ca38a828b01610a88565b989b979a50959850939692959293505050565b600181811c90821680610cca57607f821691505b602082108103610cea57634e487b7160e01b600052602260045260246000fd5b50919050565b634e487b7160e01b600052601160045260246000fd5b600060018201610d1857610d18610cf0565b5060010190565b62ffffff818116838216028082169190828114610d3e57610d3e610cf0565b505092915050565b80820180821115610d5957610d59610cf0565b92915050565b601f821115610da957600081815260208120601f850160051c81016020861015610d865750805b601f850160051c820191505b81811015610da557828155600101610d92565b5050505b505050565b815167ffffffffffffffff811115610dc857610dc86109c1565b610ddc81610dd68454610cb6565b84610d5f565b602080601f831160018114610e115760008415610df95750858301515b600019600386901b1c1916600185901b178555610da5565b600085815260208120601f198616915b82811015610e4057888601518255948401946001909101908401610e21565b5085821015610e5e5787850151600019600388901b60f8161c191681555b5050505050600190811b01905550565b81835281816020850137506000828201602090810191909152601f909101601f19169091010190565b608081526000610eab608083018789610e6e565b60ff9586166020840152939094166040820152606001529392505050565b8183823760009101908152919050565b6001600160a01b0384168152604060208201819052600090610efe9083018486610e6e565b9594505050505056fea26469706673582212206673a4dffe86de96b958cfaf0300994290606a6171e3456e1796053426c0ff9a64736f6c63430008130033",
  "devdoc": {
    "kind": "dev",
    "methods": {},
    "version": 1
  },
  "userdoc": {
    "kind": "user",
    "methods": {},
    "version": 1
  },
  "storageLayout": {
    "storage": [
      {
        "astId": 197,
        "contract": "contracts/ChainHabits.sol:ChainHabits",
        "label": "challengeCounter",
        "offset": 0,
        "slot": "0",
        "type": "t_uint256"
      },
      {
        "astId": 199,
        "contract": "contracts/ChainHabits.sol:ChainHabits",
        "label": "admin",
        "offset": 0,
        "slot": "1",
        "type": "t_address"
      },
      {
        "astId": 203,
        "contract": "contracts/ChainHabits.sol:ChainHabits",
        "label": "isUserNameTaken",
        "offset": 0,
        "slot": "2",
        "type": "t_mapping(t_string_memory_ptr,t_bool)"
      },
      {
        "astId": 207,
        "contract": "contracts/ChainHabits.sol:ChainHabits",
        "label": "isUserRegisteredTable",
        "offset": 0,
        "slot": "3",
        "type": "t_mapping(t_address,t_bool)"
      },
      {
        "astId": 240,
        "contract": "contracts/ChainHabits.sol:ChainHabits",
        "label": "userTable",
        "offset": 0,
        "slot": "4",
        "type": "t_mapping(t_address,t_struct(UserDetails)224_storage)"
      },
      {
        "astId": 245,
        "contract": "contracts/ChainHabits.sol:ChainHabits",
        "label": "challengeTable",
        "offset": 0,
        "slot": "5",
        "type": "t_mapping(t_uint256,t_struct(ChallengeDetails)235_storage)"
      },
      {
        "astId": 250,
        "contract": "contracts/ChainHabits.sol:ChainHabits",
        "label": "usersChallenges",
        "offset": 0,
        "slot": "6",
        "type": "t_mapping(t_address,t_array(t_uint256)dyn_storage)"
      }
    ],
    "types": {
      "t_address": {
        "encoding": "inplace",
        "label": "address",
        "numberOfBytes": "20"
      },
      "t_array(t_uint256)dyn_storage": {
        "base": "t_uint256",
        "encoding": "dynamic_array",
        "label": "uint256[]",
        "numberOfBytes": "32"
      },
      "t_bool": {
        "encoding": "inplace",
        "label": "bool",
        "numberOfBytes": "1"
      },
      "t_mapping(t_address,t_array(t_uint256)dyn_storage)": {
        "encoding": "mapping",
        "key": "t_address",
        "label": "mapping(address => uint256[])",
        "numberOfBytes": "32",
        "value": "t_array(t_uint256)dyn_storage"
      },
      "t_mapping(t_address,t_bool)": {
        "encoding": "mapping",
        "key": "t_address",
        "label": "mapping(address => bool)",
        "numberOfBytes": "32",
        "value": "t_bool"
      },
      "t_mapping(t_address,t_struct(UserDetails)224_storage)": {
        "encoding": "mapping",
        "key": "t_address",
        "label": "mapping(address => struct ChainHabits.UserDetails)",
        "numberOfBytes": "32",
        "value": "t_struct(UserDetails)224_storage"
      },
      "t_mapping(t_string_memory_ptr,t_bool)": {
        "encoding": "mapping",
        "key": "t_string_memory_ptr",
        "label": "mapping(string => bool)",
        "numberOfBytes": "32",
        "value": "t_bool"
      },
      "t_mapping(t_uint256,t_struct(ChallengeDetails)235_storage)": {
        "encoding": "mapping",
        "key": "t_uint256",
        "label": "mapping(uint256 => struct ChainHabits.ChallengeDetails)",
        "numberOfBytes": "32",
        "value": "t_struct(ChallengeDetails)235_storage"
      },
      "t_string_memory_ptr": {
        "encoding": "bytes",
        "label": "string",
        "numberOfBytes": "32"
      },
      "t_string_storage": {
        "encoding": "bytes",
        "label": "string",
        "numberOfBytes": "32"
      },
      "t_struct(ChallengeDetails)235_storage": {
        "encoding": "inplace",
        "label": "struct ChainHabits.ChallengeDetails",
        "members": [
          {
            "astId": 226,
            "contract": "contracts/ChainHabits.sol:ChainHabits",
            "label": "objective",
            "offset": 0,
            "slot": "0",
            "type": "t_string_storage"
          },
          {
            "astId": 228,
            "contract": "contracts/ChainHabits.sol:ChainHabits",
            "label": "startingMiles",
            "offset": 0,
            "slot": "1",
            "type": "t_uint8"
          },
          {
            "astId": 230,
            "contract": "contracts/ChainHabits.sol:ChainHabits",
            "label": "NoOfWeeks",
            "offset": 1,
            "slot": "1",
            "type": "t_uint8"
          },
          {
            "astId": 232,
            "contract": "contracts/ChainHabits.sol:ChainHabits",
            "label": "isLive",
            "offset": 2,
            "slot": "1",
            "type": "t_bool"
          },
          {
            "astId": 234,
            "contract": "contracts/ChainHabits.sol:ChainHabits",
            "label": "deadline",
            "offset": 0,
            "slot": "2",
            "type": "t_uint256"
          }
        ],
        "numberOfBytes": "96"
      },
      "t_struct(UserDetails)224_storage": {
        "encoding": "inplace",
        "label": "struct ChainHabits.UserDetails",
        "members": [
          {
            "astId": 209,
            "contract": "contracts/ChainHabits.sol:ChainHabits",
            "label": "username",
            "offset": 0,
            "slot": "0",
            "type": "t_string_storage"
          },
          {
            "astId": 211,
            "contract": "contracts/ChainHabits.sol:ChainHabits",
            "label": "challengeTally",
            "offset": 0,
            "slot": "1",
            "type": "t_uint256"
          },
          {
            "astId": 213,
            "contract": "contracts/ChainHabits.sol:ChainHabits",
            "label": "SuccessfulChallenges",
            "offset": 0,
            "slot": "2",
            "type": "t_uint256"
          },
          {
            "astId": 215,
            "contract": "contracts/ChainHabits.sol:ChainHabits",
            "label": "TotalStaked",
            "offset": 0,
            "slot": "3",
            "type": "t_uint256"
          },
          {
            "astId": 217,
            "contract": "contracts/ChainHabits.sol:ChainHabits",
            "label": "TotalDonated",
            "offset": 0,
            "slot": "4",
            "type": "t_uint256"
          },
          {
            "astId": 219,
            "contract": "contracts/ChainHabits.sol:ChainHabits",
            "label": "userID",
            "offset": 0,
            "slot": "5",
            "type": "t_uint256"
          },
          {
            "astId": 221,
            "contract": "contracts/ChainHabits.sol:ChainHabits",
            "label": "accessToken",
            "offset": 0,
            "slot": "6",
            "type": "t_string_storage"
          },
          {
            "astId": 223,
            "contract": "contracts/ChainHabits.sol:ChainHabits",
            "label": "refreshToken",
            "offset": 0,
            "slot": "7",
            "type": "t_string_storage"
          }
        ],
        "numberOfBytes": "256"
      },
      "t_uint256": {
        "encoding": "inplace",
        "label": "uint256",
        "numberOfBytes": "32"
      },
      "t_uint8": {
        "encoding": "inplace",
        "label": "uint8",
        "numberOfBytes": "1"
      }
    }
  }
}