{
  "address": "0x59da6dfe69b5bDc72BA43e43Dd405dc437bE1659",
  "abi": [
    {
      "inputs": [],
      "stateMutability": "nonpayable",
      "type": "constructor"
    },
    {
      "inputs": [
        {
          "internalType": "address",
          "name": "Caller",
          "type": "address"
        }
      ],
      "name": "CHAINHABITS__CallerNotAdmin",
      "type": "error"
    },
    {
      "inputs": [],
      "name": "CHAINHABITS__UserAlreadyRegistered",
      "type": "error"
    },
    {
      "inputs": [],
      "name": "CHAINHABITS__UserNotYetRegistered",
      "type": "error"
    },
    {
      "anonymous": false,
      "inputs": [
        {
          "indexed": false,
          "internalType": "uint256",
          "name": "challengeId",
          "type": "uint256"
        },
        {
          "indexed": false,
          "internalType": "string",
          "name": "Objective",
          "type": "string"
        },
        {
          "indexed": false,
          "internalType": "uint8",
          "name": "startingMiles",
          "type": "uint8"
        },
        {
          "indexed": false,
          "internalType": "uint8",
          "name": "NumberofWeeks",
          "type": "uint8"
        },
        {
          "indexed": false,
          "internalType": "uint48",
          "name": "competitionDeadline",
          "type": "uint48"
        },
        {
          "indexed": false,
          "internalType": "uint48",
          "name": "currentIntervalEpoch",
          "type": "uint48"
        },
        {
          "indexed": false,
          "internalType": "uint48",
          "name": "nextIntervalEpoch",
          "type": "uint48"
        },
        {
          "indexed": false,
          "internalType": "address",
          "name": "defaultAddress",
          "type": "address"
        }
      ],
      "name": "NewChallengeCreated",
      "type": "event"
    },
    {
      "anonymous": false,
      "inputs": [
        {
          "indexed": false,
          "internalType": "address",
          "name": "user",
          "type": "address"
        }
      ],
      "name": "NewUserRegistered",
      "type": "event"
    },
    {
      "inputs": [],
      "name": "admin",
      "outputs": [
        {
          "internalType": "address",
          "name": "",
          "type": "address"
        }
      ],
      "stateMutability": "view",
      "type": "function"
    },
    {
      "inputs": [
        {
          "internalType": "uint256",
          "name": "",
          "type": "uint256"
        }
      ],
      "name": "allUsers",
      "outputs": [
        {
          "internalType": "address",
          "name": "",
          "type": "address"
        }
      ],
      "stateMutability": "view",
      "type": "function"
    },
    {
      "inputs": [
        {
          "internalType": "string",
          "name": "_obj",
          "type": "string"
        },
        {
          "internalType": "uint8",
          "name": "_targetMiles",
          "type": "uint8"
        },
        {
          "internalType": "uint8",
          "name": "_weeks",
          "type": "uint8"
        },
        {
          "internalType": "address",
          "name": "_defaultAddress",
          "type": "address"
        }
      ],
      "name": "createNewChallenge",
      "outputs": [
        {
          "internalType": "uint256",
          "name": "challengeId",
          "type": "uint256"
        }
      ],
      "stateMutability": "payable",
      "type": "function"
    },
    {
      "inputs": [],
      "name": "getAllUserDetails",
      "outputs": [
        {
          "internalType": "address[]",
          "name": "",
          "type": "address[]"
        }
      ],
      "stateMutability": "view",
      "type": "function"
    },
    {
      "inputs": [
        {
          "internalType": "uint256",
          "name": "_challengeId",
          "type": "uint256"
        }
      ],
      "name": "getChallengeDetails",
      "outputs": [
        {
          "components": [
            {
              "internalType": "string",
              "name": "objective",
              "type": "string"
            },
            {
              "internalType": "uint8",
              "name": "targetMiles",
              "type": "uint8"
            },
            {
              "internalType": "uint8",
              "name": "NoOfWeeks",
              "type": "uint8"
            },
            {
              "internalType": "uint8",
              "name": "failedWeeks",
              "type": "uint8"
            },
            {
              "internalType": "bool",
              "name": "isLive",
              "type": "bool"
            },
            {
              "internalType": "uint48",
              "name": "competitionDeadline",
              "type": "uint48"
            },
            {
              "internalType": "uint48",
              "name": "currentIntervalEpoch",
              "type": "uint48"
            },
            {
              "internalType": "uint48",
              "name": "nextIntervalEpoch",
              "type": "uint48"
            },
            {
              "internalType": "address",
              "name": "defaultAddress",
              "type": "address"
            }
          ],
          "internalType": "struct ChainHabits.ChallengeDetails",
          "name": "",
          "type": "tuple"
        }
      ],
      "stateMutability": "view",
      "type": "function"
    },
    {
      "inputs": [
        {
          "internalType": "address",
          "name": "_userAddress",
          "type": "address"
        }
      ],
      "name": "getChallengeId",
      "outputs": [
        {
          "internalType": "uint256",
          "name": "",
          "type": "uint256"
        }
      ],
      "stateMutability": "view",
      "type": "function"
    },
    {
      "inputs": [
        {
          "internalType": "address",
          "name": "_user",
          "type": "address"
        }
      ],
      "name": "getUserDetails",
      "outputs": [
        {
          "components": [
            {
              "internalType": "uint256",
              "name": "challengeTally",
              "type": "uint256"
            },
            {
              "internalType": "uint256",
              "name": "SuccessfulChallenges",
              "type": "uint256"
            },
            {
              "internalType": "uint256",
              "name": "currenStaked",
              "type": "uint256"
            },
            {
              "internalType": "uint256",
              "name": "totalDonated",
              "type": "uint256"
            },
            {
              "internalType": "uint256",
              "name": "userID",
              "type": "uint256"
            },
            {
              "internalType": "string",
              "name": "refreshToken",
              "type": "string"
            }
          ],
          "internalType": "struct ChainHabits.UserDetails",
          "name": "",
          "type": "tuple"
        }
      ],
      "stateMutability": "view",
      "type": "function"
    },
    {
      "inputs": [
        {
          "internalType": "uint256",
          "name": "challengeId",
          "type": "uint256"
        },
        {
          "internalType": "uint256",
          "name": "_amountToDefault",
          "type": "uint256"
        }
      ],
      "name": "handleCompleteChallenge",
      "outputs": [],
      "stateMutability": "nonpayable",
      "type": "function"
    },
    {
      "inputs": [
        {
          "internalType": "uint256",
          "name": "_challengeId",
          "type": "uint256"
        },
        {
          "internalType": "bool",
          "name": "failed",
          "type": "bool"
        },
        {
          "internalType": "uint48",
          "name": "currentIntervalEpoch",
          "type": "uint48"
        },
        {
          "internalType": "uint48",
          "name": "nextIntervalEpoch",
          "type": "uint48"
        }
      ],
      "name": "handleIntervalReview",
      "outputs": [],
      "stateMutability": "nonpayable",
      "type": "function"
    },
    {
      "inputs": [
        {
          "internalType": "address",
          "name": "",
          "type": "address"
        }
      ],
      "name": "isUserRegisteredTable",
      "outputs": [
        {
          "internalType": "bool",
          "name": "",
          "type": "bool"
        }
      ],
      "stateMutability": "view",
      "type": "function"
    },
    {
      "inputs": [
        {
          "internalType": "uint256",
          "name": "userID",
          "type": "uint256"
        },
        {
          "internalType": "string",
          "name": "_refreshToken",
          "type": "string"
        }
      ],
      "name": "registerNewUser",
      "outputs": [],
      "stateMutability": "nonpayable",
      "type": "function"
    },
    {
      "inputs": [],
      "name": "test",
      "outputs": [],
      "stateMutability": "nonpayable",
      "type": "function"
    },
    {
      "inputs": [],
      "name": "testVar",
      "outputs": [
        {
          "internalType": "uint256",
          "name": "",
          "type": "uint256"
        }
      ],
      "stateMutability": "view",
      "type": "function"
    },
    {
      "inputs": [],
      "name": "testVar4",
      "outputs": [
        {
          "internalType": "uint256",
          "name": "",
          "type": "uint256"
        }
      ],
      "stateMutability": "view",
      "type": "function"
    },
    {
      "inputs": [
        {
          "internalType": "address",
          "name": "_user",
          "type": "address"
        },
        {
          "internalType": "string",
          "name": "_refreshToken",
          "type": "string"
        }
      ],
      "name": "updateRefreshToken",
      "outputs": [],
      "stateMutability": "nonpayable",
      "type": "function"
    },
    {
      "inputs": [
        {
          "internalType": "address",
          "name": "",
          "type": "address"
        }
      ],
      "name": "userHasLiveChallenge",
      "outputs": [
        {
          "internalType": "bool",
          "name": "",
          "type": "bool"
        }
      ],
      "stateMutability": "view",
      "type": "function"
    },
    {
      "inputs": [],
      "name": "withdrawFunds",
      "outputs": [],
      "stateMutability": "nonpayable",
      "type": "function"
    }
  ],
  "transactionHash": "0xa5d5a1f2e510c2f71c4bc180abbcf83e7982fe1ed04a3f0c023e53d107ac519b",
  "args": [],
  "numDeployments": 5,
  "solcInputHash": "8cc8d739ed07440923795a6fada075be",
  "bytecode": "0x608060405234801561001057600080fd5b50600180546001600160a01b0319163390811790915561002f90610034565b6100b7565b6040516001600160a01b03821660248201526100809060440160408051601f198184030181529190526020810180516001600160e01b0390811663161765e160e11b1790915261008316565b50565b6100808161009660201b61100c1760201c565b60006a636f6e736f6c652e6c6f679050600080835160208501845afa505050565b6117fe80620000c76000396000f3fe6080604052600436106100fe5760003560e01c8063aef6eaed11610095578063e30a392411610064578063e30a3924146102d2578063f851a44014610308578063f8a8fd6d14610328578063f9643e4e1461033d578063fb24a7031461035f57600080fd5b8063aef6eaed1461023f578063c8d907fb14610255578063cc3d967b14610275578063d0a2a940146102a257600080fd5b8063937681b8116100d1578063937681b8146101905780639c328fb3146101b1578063a2bdedf4146101c7578063addb889d146101ff57600080fd5b80630d63efa71461010357806315452ad01461012557806324600fc3146101455780633d40a54f1461015a575b600080fd5b34801561010f57600080fd5b5061012361011e3660046110ee565b61037f565b005b34801561013157600080fd5b50610123610140366004611157565b6103ea565b34801561015157600080fd5b5061012361050e565b34801561016657600080fd5b5061017a6101753660046111ab565b610541565b604051610187919061120a565b60405180910390f35b6101a361019e3660046112d9565b6106ba565b604051908152602001610187565b3480156101bd57600080fd5b506101a360085481565b3480156101d357600080fd5b506101e76101e23660046111ab565b61097c565b6040516001600160a01b039091168152602001610187565b34801561020b57600080fd5b5061022f61021a36600461134f565b60036020526000908152604090205460ff1681565b6040519015158152602001610187565b34801561024b57600080fd5b506101a360095481565b34801561026157600080fd5b50610123610270366004611371565b6109a6565b34801561028157600080fd5b5061029561029036600461134f565b610ce1565b6040516101879190611393565b3480156102ae57600080fd5b5061022f6102bd36600461134f565b60046020526000908152604090205460ff1681565b3480156102de57600080fd5b506101a36102ed36600461134f565b6001600160a01b031660009081526007602052604090205490565b34801561031457600080fd5b506001546101e7906001600160a01b031681565b34801561033457600080fd5b50610123610e15565b34801561034957600080fd5b50610352610e2c565b60405161018791906113e8565b34801561036b57600080fd5b5061012361037a366004611435565b610e8e565b60015433906001600160a01b031681146103bc576040516305a73c3160e11b81526001600160a01b03821660048201526024015b60405180910390fd5b6001600160a01b0384166000908152600560208190526040909120016103e3838583611507565b5050505050565b60015433906001600160a01b03168114610422576040516305a73c3160e11b81526001600160a01b03821660048201526024016103b3565b831561046a576000858152600660205260409020600101805462010000900460ff16906002610450836115dd565b91906101000a81548160ff021916908360ff160217905550505b604080518082018252600a8152696661696c65647765656b60b01b6020808301919091526000888152600690915291909120600101546104b3919062010000900460ff1661102d565b5060009384526006602052604090932060010180546bffffffffffffffffffffffff60501b1916600160501b65ffffffffffff9384160265ffffffffffff60801b191617600160801b92909416919091029290921790915550565b3360008181526003602052604090205460ff1661053e57604051632ac0e50f60e11b815260040160405180910390fd5b50565b6040805161012081018252606080825260006020830181905292820183905281018290526080810182905260a0810182905260c0810182905260e0810182905261010081019190915260008281526006602052604090819020815161012081019092528054829082906105b39061147e565b80601f01602080910402602001604051908101604052809291908181526020018280546105df9061147e565b801561062c5780601f106106015761010080835404028352916020019161062c565b820191906000526020600020905b81548152906001019060200180831161060f57829003601f168201915b5050509183525050600182015460ff80821660208401526101008083048216604085015262010000830482166060850152630100000083049091161515608084015265ffffffffffff6401000000008304811660a0850152600160501b8304811660c0850152600160801b90920490911660e08301526002909201546001600160a01b031691015292915050565b3360008181526003602052604081205490919060ff166106ed57604051632ac0e50f60e11b815260040160405180910390fd5b6000805492508290806106ff836115fc565b919050555060405180610120016040528088888080601f016020809104026020016040519081016040528093929190818152602001838380828437600092018290525093855250505060ff80891660208401528716604083015260608201526001608082015260a001610775426224ea00611615565b65ffffffffffff1681526020014265ffffffffffff1681526020014262093a8061079f9190611615565b65ffffffffffff1681526001600160a01b0385166020918201526000848152600690915260409020815181906107d5908261163b565b506020828101516001830180546040808701516060880151608089015160a08a015160c08b015160e08c015160ff998a1661ffff1990981697909717610100958a1686021763ffff0000191662010000999094169890980263ff000000191692909217630100000091151591909102176fffffffffffffffffffffffff00000000191664010000000065ffffffffffff9283160265ffffffffffff60501b191617600160501b968216969096029590951765ffffffffffff60801b1916600160801b959093169490940291909117909155930151600292830180546001600160a01b0319166001600160a01b039092169190911790553360009081526007825283812086905560059091529182200180543492906108f49084906116fb565b9091555050336000908152600460205260409020805460ff191660011790557f29b70b0c447c08b99b85e90f858fee03293839973b716e5cf522493643b2f53082888888886109464262409980611615565b426109548162093a80611615565b8b60405161096a99989796959493929190611714565b60405180910390a15095945050505050565b6002818154811061098c57600080fd5b6000918252602090912001546001600160a01b0316905081565b60015433906001600160a01b031681146109de576040516305a73c3160e11b81526001600160a01b03821660048201526024016103b3565b60008381526006602052604080822081516101208101909252805482908290610a069061147e565b80601f0160208091040260200160405190810160405280929190818152602001828054610a329061147e565b8015610a7f5780601f10610a5457610100808354040283529160200191610a7f565b820191906000526020600020905b815481529060010190602001808311610a6257829003601f168201915b5050509183525050600182015460ff80821660208401526101008083048216604085015262010000830482166060850152630100000083049091161515608084015265ffffffffffff6401000000008304811660a0850152600160501b8304811660c0850152600160801b90920490911660e08301526002909201546001600160a01b031691015290508215610bae5760008161010001516001600160a01b03168460405160006040518083038185875af1925050503d8060008114610b61576040519150601f19603f3d011682016040523d82523d6000602084013e610b66565b606091505b5050905080610bac5760405162461bcd60e51b81526020600482015260126024820152710ccc2d2d8cac840e8de40e6cadcc840cae8d60731b60448201526064016103b3565b505b336000908152600460209081526040808320805460ff19169055608084018390528683526006909152902081518291908190610bea908261163b565b50602082015160018201805460408501516060860151608087015160a088015160c089015160e08a015160ff98891661ffff199097169690961761010095891686021763ffff0000191662010000989094169790970263ff000000191692909217630100000091151591909102176fffffffffffffffffffffffff00000000191664010000000065ffffffffffff9283160265ffffffffffff60501b191617600160501b958216959095029490941765ffffffffffff60801b1916600160801b949092169390930217905590910151600290910180546001600160a01b0319166001600160a01b0390921691909117905550505050565b610d1a6040518060c001604052806000815260200160008152602001600081526020016000815260200160008152602001606081525090565b60056000836001600160a01b03166001600160a01b031681526020019081526020016000206040518060c00160405290816000820154815260200160018201548152602001600282015481526020016003820154815260200160048201548152602001600582018054610d8c9061147e565b80601f0160208091040260200160405190810160405280929190818152602001828054610db89061147e565b8015610e055780601f10610dda57610100808354040283529160200191610e05565b820191906000526020600020905b815481529060010190602001808311610de857829003601f168201915b5050505050815250509050919050565b60088054906000610e25836115fc565b9190505550565b60606002805480602002602001604051908101604052809291908181526020018280548015610e8457602002820191906000526020600020905b81546001600160a01b03168152600190910190602001808311610e66575b5050505050905090565b3360008181526003602052604090205460ff1615610ebf57604051632f22a0e560e01b815260040160405180910390fd5b6040518060c001604052806000815260200160008152602001600081526020016000815260200185815260200184848080601f01602080910402602001604051908101604052809392919081815260200183838082843760009201829052509390945250503381526005602081815260409283902085518155908501516001820155918401516002830155606084015160038301556080840151600483015560a0840151919250820190610f73908261163b565b5050336000818152600360209081526040808320805460ff191660019081179091556002805491820181559093527f405787fa12a823e0f2b7631cc41b3ba8828b3321ca811111fa75cd3aa3bb5ace90920180546001600160a01b0319168417905590519182527ff382cb45b37e0f2786ad5a8328040a5c6a63584130f9076ba1627d420ffadc8b92500160405180910390a150505050565b60006a636f6e736f6c652e6c6f679050600080835160208501845afa505050565b6110728282604051602401611043929190611790565b60408051601f198184030181529190526020810180516001600160e01b0316632d839cb360e21b179052611076565b5050565b61053e8161100c565b6110876117b2565b565b80356001600160a01b03811681146110a057600080fd5b919050565b60008083601f8401126110b757600080fd5b50813567ffffffffffffffff8111156110cf57600080fd5b6020830191508360208285010111156110e757600080fd5b9250929050565b60008060006040848603121561110357600080fd5b61110c84611089565b9250602084013567ffffffffffffffff81111561112857600080fd5b611134868287016110a5565b9497909650939450505050565b803565ffffffffffff811681146110a057600080fd5b6000806000806080858703121561116d57600080fd5b843593506020850135801515811461118457600080fd5b925061119260408601611141565b91506111a060608601611141565b905092959194509250565b6000602082840312156111bd57600080fd5b5035919050565b6000815180845260005b818110156111ea576020818501810151868301820152016111ce565b506000602082860101526020601f19601f83011685010191505092915050565b60208152600082516101208060208501526112296101408501836111c4565b9150602085015161123f604086018260ff169052565b50604085015160ff8116606086015250606085015160ff8116608086015250608085015180151560a08601525060a085015165ffffffffffff811660c08601525060c085015165ffffffffffff811660e08601525060e08501516101006112af8187018365ffffffffffff169052565b909501516001600160a01b031693019290925250919050565b803560ff811681146110a057600080fd5b6000806000806000608086880312156112f157600080fd5b853567ffffffffffffffff81111561130857600080fd5b611314888289016110a5565b90965094506113279050602087016112c8565b9250611335604087016112c8565b915061134360608701611089565b90509295509295909350565b60006020828403121561136157600080fd5b61136a82611089565b9392505050565b6000806040838503121561138457600080fd5b50508035926020909101359150565b6020815281516020820152602082015160408201526040820151606082015260608201516080820152608082015160a0820152600060a083015160c0808401526113e060e08401826111c4565b949350505050565b6020808252825182820181905260009190848201906040850190845b818110156114295783516001600160a01b031683529284019291840191600101611404565b50909695505050505050565b60008060006040848603121561144a57600080fd5b83359250602084013567ffffffffffffffff81111561112857600080fd5b634e487b7160e01b600052604160045260246000fd5b600181811c9082168061149257607f821691505b6020821081036114b257634e487b7160e01b600052602260045260246000fd5b50919050565b601f82111561150257600081815260208120601f850160051c810160208610156114df5750805b601f850160051c820191505b818110156114fe578281556001016114eb565b5050505b505050565b67ffffffffffffffff83111561151f5761151f611468565b6115338361152d835461147e565b836114b8565b6000601f841160018114611567576000851561154f5750838201355b600019600387901b1c1916600186901b1783556103e3565b600083815260209020601f19861690835b828110156115985786850135825560209485019460019092019101611578565b50868210156115b55760001960f88860031b161c19848701351681555b505060018560011b0183555050505050565b634e487b7160e01b600052601160045260246000fd5b600060ff821660ff81036115f3576115f36115c7565b60010192915050565b60006001820161160e5761160e6115c7565b5060010190565b65ffffffffffff818116838216019080821115611634576116346115c7565b5092915050565b815167ffffffffffffffff81111561165557611655611468565b61166981611663845461147e565b846114b8565b602080601f83116001811461169e57600084156116865750858301515b600019600386901b1c1916600185901b1785556114fe565b600085815260208120601f198616915b828110156116cd578886015182559484019460019091019084016116ae565b50858210156116eb5787850151600019600388901b60f8161c191681555b5050505050600190811b01905550565b8082018082111561170e5761170e6115c7565b92915050565b60006101008b8352806020840152898184015250610120898b8285013760008a840182015260ff988916604084015296909716606082015265ffffffffffff948516608082015292841660a0840152921660c08201526001600160a01b0390911660e0820152601f909301601f19169092019091019392505050565b6040815260006117a360408301856111c4565b90508260208301529392505050565b634e487b7160e01b600052605160045260246000fdfea2646970667358221220dee8c044caff7db21255e8fc3c243f21edc4e103d9351ca5f338466037c016da64736f6c63430008130033",
  "devdoc": {
    "kind": "dev",
    "methods": {},
    "version": 1
  },
  "userdoc": {
    "kind": "user",
    "methods": {},
    "version": 1
  },
  "storageLayout": {
    "storage": [
      {
        "astId": 197,
        "contract": "contracts/ChainHabits.sol:ChainHabits",
        "label": "challengeCounter",
        "offset": 0,
        "slot": "0",
        "type": "t_uint256"
      },
      {
        "astId": 199,
        "contract": "contracts/ChainHabits.sol:ChainHabits",
        "label": "admin",
        "offset": 0,
        "slot": "1",
        "type": "t_address"
      },
      {
        "astId": 202,
        "contract": "contracts/ChainHabits.sol:ChainHabits",
        "label": "allUsers",
        "offset": 0,
        "slot": "2",
        "type": "t_array(t_address)dyn_storage"
      },
      {
        "astId": 238,
        "contract": "contracts/ChainHabits.sol:ChainHabits",
        "label": "isUserRegisteredTable",
        "offset": 0,
        "slot": "3",
        "type": "t_mapping(t_address,t_bool)"
      },
      {
        "astId": 242,
        "contract": "contracts/ChainHabits.sol:ChainHabits",
        "label": "userHasLiveChallenge",
        "offset": 0,
        "slot": "4",
        "type": "t_mapping(t_address,t_bool)"
      },
      {
        "astId": 247,
        "contract": "contracts/ChainHabits.sol:ChainHabits",
        "label": "userTable",
        "offset": 0,
        "slot": "5",
        "type": "t_mapping(t_address,t_struct(UserDetails)215_storage)"
      },
      {
        "astId": 252,
        "contract": "contracts/ChainHabits.sol:ChainHabits",
        "label": "challengeTable",
        "offset": 0,
        "slot": "6",
        "type": "t_mapping(t_uint256,t_struct(ChallengeDetails)234_storage)"
      },
      {
        "astId": 256,
        "contract": "contracts/ChainHabits.sol:ChainHabits",
        "label": "usersCurrentChallenge",
        "offset": 0,
        "slot": "7",
        "type": "t_mapping(t_address,t_uint256)"
      },
      {
        "astId": 635,
        "contract": "contracts/ChainHabits.sol:ChainHabits",
        "label": "testVar",
        "offset": 0,
        "slot": "8",
        "type": "t_uint256"
      },
      {
        "astId": 637,
        "contract": "contracts/ChainHabits.sol:ChainHabits",
        "label": "testVar4",
        "offset": 0,
        "slot": "9",
        "type": "t_uint256"
      }
    ],
    "types": {
      "t_address": {
        "encoding": "inplace",
        "label": "address",
        "numberOfBytes": "20"
      },
      "t_array(t_address)dyn_storage": {
        "base": "t_address",
        "encoding": "dynamic_array",
        "label": "address[]",
        "numberOfBytes": "32"
      },
      "t_bool": {
        "encoding": "inplace",
        "label": "bool",
        "numberOfBytes": "1"
      },
      "t_mapping(t_address,t_bool)": {
        "encoding": "mapping",
        "key": "t_address",
        "label": "mapping(address => bool)",
        "numberOfBytes": "32",
        "value": "t_bool"
      },
      "t_mapping(t_address,t_struct(UserDetails)215_storage)": {
        "encoding": "mapping",
        "key": "t_address",
        "label": "mapping(address => struct ChainHabits.UserDetails)",
        "numberOfBytes": "32",
        "value": "t_struct(UserDetails)215_storage"
      },
      "t_mapping(t_address,t_uint256)": {
        "encoding": "mapping",
        "key": "t_address",
        "label": "mapping(address => uint256)",
        "numberOfBytes": "32",
        "value": "t_uint256"
      },
      "t_mapping(t_uint256,t_struct(ChallengeDetails)234_storage)": {
        "encoding": "mapping",
        "key": "t_uint256",
        "label": "mapping(uint256 => struct ChainHabits.ChallengeDetails)",
        "numberOfBytes": "32",
        "value": "t_struct(ChallengeDetails)234_storage"
      },
      "t_string_storage": {
        "encoding": "bytes",
        "label": "string",
        "numberOfBytes": "32"
      },
      "t_struct(ChallengeDetails)234_storage": {
        "encoding": "inplace",
        "label": "struct ChainHabits.ChallengeDetails",
        "members": [
          {
            "astId": 217,
            "contract": "contracts/ChainHabits.sol:ChainHabits",
            "label": "objective",
            "offset": 0,
            "slot": "0",
            "type": "t_string_storage"
          },
          {
            "astId": 219,
            "contract": "contracts/ChainHabits.sol:ChainHabits",
            "label": "targetMiles",
            "offset": 0,
            "slot": "1",
            "type": "t_uint8"
          },
          {
            "astId": 221,
            "contract": "contracts/ChainHabits.sol:ChainHabits",
            "label": "NoOfWeeks",
            "offset": 1,
            "slot": "1",
            "type": "t_uint8"
          },
          {
            "astId": 223,
            "contract": "contracts/ChainHabits.sol:ChainHabits",
            "label": "failedWeeks",
            "offset": 2,
            "slot": "1",
            "type": "t_uint8"
          },
          {
            "astId": 225,
            "contract": "contracts/ChainHabits.sol:ChainHabits",
            "label": "isLive",
            "offset": 3,
            "slot": "1",
            "type": "t_bool"
          },
          {
            "astId": 227,
            "contract": "contracts/ChainHabits.sol:ChainHabits",
            "label": "competitionDeadline",
            "offset": 4,
            "slot": "1",
            "type": "t_uint48"
          },
          {
            "astId": 229,
            "contract": "contracts/ChainHabits.sol:ChainHabits",
            "label": "currentIntervalEpoch",
            "offset": 10,
            "slot": "1",
            "type": "t_uint48"
          },
          {
            "astId": 231,
            "contract": "contracts/ChainHabits.sol:ChainHabits",
            "label": "nextIntervalEpoch",
            "offset": 16,
            "slot": "1",
            "type": "t_uint48"
          },
          {
            "astId": 233,
            "contract": "contracts/ChainHabits.sol:ChainHabits",
            "label": "defaultAddress",
            "offset": 0,
            "slot": "2",
            "type": "t_address"
          }
        ],
        "numberOfBytes": "96"
      },
      "t_struct(UserDetails)215_storage": {
        "encoding": "inplace",
        "label": "struct ChainHabits.UserDetails",
        "members": [
          {
            "astId": 204,
            "contract": "contracts/ChainHabits.sol:ChainHabits",
            "label": "challengeTally",
            "offset": 0,
            "slot": "0",
            "type": "t_uint256"
          },
          {
            "astId": 206,
            "contract": "contracts/ChainHabits.sol:ChainHabits",
            "label": "SuccessfulChallenges",
            "offset": 0,
            "slot": "1",
            "type": "t_uint256"
          },
          {
            "astId": 208,
            "contract": "contracts/ChainHabits.sol:ChainHabits",
            "label": "currenStaked",
            "offset": 0,
            "slot": "2",
            "type": "t_uint256"
          },
          {
            "astId": 210,
            "contract": "contracts/ChainHabits.sol:ChainHabits",
            "label": "totalDonated",
            "offset": 0,
            "slot": "3",
            "type": "t_uint256"
          },
          {
            "astId": 212,
            "contract": "contracts/ChainHabits.sol:ChainHabits",
            "label": "userID",
            "offset": 0,
            "slot": "4",
            "type": "t_uint256"
          },
          {
            "astId": 214,
            "contract": "contracts/ChainHabits.sol:ChainHabits",
            "label": "refreshToken",
            "offset": 0,
            "slot": "5",
            "type": "t_string_storage"
          }
        ],
        "numberOfBytes": "192"
      },
      "t_uint256": {
        "encoding": "inplace",
        "label": "uint256",
        "numberOfBytes": "32"
      },
      "t_uint48": {
        "encoding": "inplace",
        "label": "uint48",
        "numberOfBytes": "6"
      },
      "t_uint8": {
        "encoding": "inplace",
        "label": "uint8",
        "numberOfBytes": "1"
      }
    }
  }
}