{
  "address": "0x817253f245A48B0B2f156c0b84460c2819a9D2c1",
  "abi": [
    {
      "inputs": [],
      "stateMutability": "nonpayable",
      "type": "constructor"
    },
    {
      "inputs": [],
      "name": "CHAINHABITS__ChallengeNotLive",
      "type": "error"
    },
    {
      "inputs": [],
      "name": "CHAINHABITS__ChallengeStillActive",
      "type": "error"
    },
    {
      "inputs": [],
      "name": "CHAINHABITS__ERC20DepositAmountIs0",
      "type": "error"
    },
    {
      "inputs": [],
      "name": "CHAINHABITS__ERC20TokenNotSupported",
      "type": "error"
    },
    {
      "inputs": [],
      "name": "CHAINHABITS__ERC20TransferFailed",
      "type": "error"
    },
    {
      "inputs": [],
      "name": "CHAINHABITS__ForfeitAddressInvalid",
      "type": "error"
    },
    {
      "inputs": [],
      "name": "CHAINHABITS__ForfeitExceedsStake",
      "type": "error"
    },
    {
      "inputs": [],
      "name": "CHAINHABITS__IncorrectAddressORChallengeId",
      "type": "error"
    },
    {
      "inputs": [],
      "name": "CHAINHABITS__InsufficientERC20Allowance",
      "type": "error"
    },
    {
      "inputs": [],
      "name": "CHAINHABITS__InsufficientERC20Balance",
      "type": "error"
    },
    {
      "inputs": [],
      "name": "CHAINHABITS__InsufficientFunds",
      "type": "error"
    },
    {
      "inputs": [],
      "name": "CHAINHABITS__PrivateInformation",
      "type": "error"
    },
    {
      "inputs": [],
      "name": "CHAINHABITS__StakeAmountisZero",
      "type": "error"
    },
    {
      "inputs": [],
      "name": "CHAINHABITS__UserAlreadyRegistered",
      "type": "error"
    },
    {
      "inputs": [],
      "name": "CHAINHABITS__UserHasLiveObjective",
      "type": "error"
    },
    {
      "inputs": [],
      "name": "CHAINHABITS__UserNotYetRegistered",
      "type": "error"
    },
    {
      "anonymous": false,
      "inputs": [
        {
          "indexed": true,
          "internalType": "uint256",
          "name": "challengeId",
          "type": "uint256"
        },
        {
          "indexed": true,
          "internalType": "address",
          "name": "user",
          "type": "address"
        },
        {
          "indexed": false,
          "internalType": "bool",
          "name": "status",
          "type": "bool"
        },
        {
          "indexed": false,
          "internalType": "uint256",
          "name": "stakeForfeited",
          "type": "uint256"
        }
      ],
      "name": "ChallengeCompleted",
      "type": "event"
    },
    {
      "anonymous": false,
      "inputs": [
        {
          "indexed": true,
          "internalType": "address",
          "name": "user",
          "type": "address"
        },
        {
          "indexed": false,
          "internalType": "uint256",
          "name": "amount",
          "type": "uint256"
        }
      ],
      "name": "ForfeitedFundsFailedToSend",
      "type": "event"
    },
    {
      "anonymous": false,
      "inputs": [
        {
          "indexed": true,
          "internalType": "address",
          "name": "user",
          "type": "address"
        },
        {
          "indexed": false,
          "internalType": "uint256",
          "name": "amount",
          "type": "uint256"
        }
      ],
      "name": "FundsWithdrawn",
      "type": "event"
    },
    {
      "anonymous": false,
      "inputs": [
        {
          "indexed": true,
          "internalType": "uint256",
          "name": "challengeId",
          "type": "uint256"
        },
        {
          "indexed": false,
          "internalType": "address",
          "name": "userAddress",
          "type": "address"
        },
        {
          "indexed": false,
          "internalType": "bool",
          "name": "success",
          "type": "bool"
        }
      ],
      "name": "IntervalReviewCompleted",
      "type": "event"
    },
    {
      "anonymous": false,
      "inputs": [
        {
          "indexed": true,
          "internalType": "uint256",
          "name": "challengeId",
          "type": "uint256"
        },
        {
          "indexed": true,
          "internalType": "address",
          "name": "user",
          "type": "address"
        },
        {
          "indexed": false,
          "internalType": "string",
          "name": "Objective",
          "type": "string"
        },
        {
          "indexed": false,
          "internalType": "uint8",
          "name": "startingMiles",
          "type": "uint8"
        },
        {
          "indexed": false,
          "internalType": "uint8",
          "name": "NumberofWeeks",
          "type": "uint8"
        },
        {
          "indexed": false,
          "internalType": "uint8",
          "name": "PercentageIncrease",
          "type": "uint8"
        },
        {
          "indexed": false,
          "internalType": "address",
          "name": "defaultAddress",
          "type": "address"
        },
        {
          "indexed": false,
          "internalType": "uint256",
          "name": "amount",
          "type": "uint256"
        },
        {
          "indexed": false,
          "internalType": "address",
          "name": "erc20Address",
          "type": "address"
        }
      ],
      "name": "NewChallengeCreated",
      "type": "event"
    },
    {
      "anonymous": false,
      "inputs": [
        {
          "indexed": true,
          "internalType": "address",
          "name": "user",
          "type": "address"
        }
      ],
      "name": "NewUserRegistered",
      "type": "event"
    },
    {
      "anonymous": false,
      "inputs": [
        {
          "indexed": true,
          "internalType": "address",
          "name": "previousOwner",
          "type": "address"
        },
        {
          "indexed": true,
          "internalType": "address",
          "name": "newOwner",
          "type": "address"
        }
      ],
      "name": "OwnershipTransferred",
      "type": "event"
    },
    {
      "inputs": [
        {
          "internalType": "address",
          "name": "",
          "type": "address"
        }
      ],
      "name": "ForfeitedFundsToBeCollected",
      "outputs": [
        {
          "internalType": "uint256",
          "name": "",
          "type": "uint256"
        }
      ],
      "stateMutability": "view",
      "type": "function"
    },
    {
      "inputs": [
        {
          "internalType": "uint256",
          "name": "_challengeId",
          "type": "uint256"
        }
      ],
      "name": "_isChallengeLive",
      "outputs": [
        {
          "internalType": "bool",
          "name": "",
          "type": "bool"
        }
      ],
      "stateMutability": "view",
      "type": "function"
    },
    {
      "inputs": [
        {
          "internalType": "address",
          "name": "erc20Address",
          "type": "address"
        },
        {
          "internalType": "address",
          "name": "_priceFeedAddress",
          "type": "address"
        }
      ],
      "name": "addPriceFeedAddress",
      "outputs": [],
      "stateMutability": "nonpayable",
      "type": "function"
    },
    {
      "inputs": [
        {
          "internalType": "uint256",
          "name": "challengeId",
          "type": "uint256"
        }
      ],
      "name": "challengeTable",
      "outputs": [
        {
          "internalType": "uint8",
          "name": "targetMiles",
          "type": "uint8"
        },
        {
          "internalType": "uint8",
          "name": "NoOfWeeks",
          "type": "uint8"
        },
        {
          "internalType": "uint8",
          "name": "failedWeeks",
          "type": "uint8"
        },
        {
          "internalType": "bool",
          "name": "isLive",
          "type": "bool"
        },
        {
          "internalType": "uint48",
          "name": "challengeStartDate",
          "type": "uint48"
        },
        {
          "internalType": "address",
          "name": "defaultAddress",
          "type": "address"
        }
      ],
      "stateMutability": "view",
      "type": "function"
    },
    {
      "inputs": [
        {
          "internalType": "string",
          "name": "_obj",
          "type": "string"
        },
        {
          "internalType": "uint8",
          "name": "_targetMiles",
          "type": "uint8"
        },
        {
          "internalType": "uint8",
          "name": "_weeks",
          "type": "uint8"
        },
        {
          "internalType": "address",
          "name": "_forfeitAddress",
          "type": "address"
        },
        {
          "internalType": "uint8",
          "name": "_percentageIncrease",
          "type": "uint8"
        },
        {
          "internalType": "address",
          "name": "_erc20Address",
          "type": "address"
        },
        {
          "internalType": "uint256",
          "name": "_depositAmount",
          "type": "uint256"
        }
      ],
      "name": "createNewChallenge",
      "outputs": [
        {
          "internalType": "uint256",
          "name": "challengeId",
          "type": "uint256"
        }
      ],
      "stateMutability": "payable",
      "type": "function"
    },
    {
      "inputs": [
        {
          "internalType": "uint256",
          "name": "_challengeId",
          "type": "uint256"
        }
      ],
      "name": "getChallengeDetails",
      "outputs": [
        {
          "components": [
            {
              "internalType": "uint8",
              "name": "targetMiles",
              "type": "uint8"
            },
            {
              "internalType": "uint8",
              "name": "NoOfWeeks",
              "type": "uint8"
            },
            {
              "internalType": "uint8",
              "name": "failedWeeks",
              "type": "uint8"
            },
            {
              "internalType": "bool",
              "name": "isLive",
              "type": "bool"
            },
            {
              "internalType": "uint48",
              "name": "challengeStartDate",
              "type": "uint48"
            },
            {
              "internalType": "address",
              "name": "defaultAddress",
              "type": "address"
            }
          ],
          "internalType": "struct ChainHabits.ChallengeDetails",
          "name": "",
          "type": "tuple"
        }
      ],
      "stateMutability": "view",
      "type": "function"
    },
    {
      "inputs": [
        {
          "internalType": "address",
          "name": "_userAddress",
          "type": "address"
        }
      ],
      "name": "getChallengeId",
      "outputs": [
        {
          "internalType": "uint256",
          "name": "",
          "type": "uint256"
        }
      ],
      "stateMutability": "view",
      "type": "function"
    },
    {
      "inputs": [
        {
          "internalType": "address",
          "name": "_user",
          "type": "address"
        }
      ],
      "name": "getUserDetails",
      "outputs": [
        {
          "components": [
            {
              "internalType": "uint256",
              "name": "userID",
              "type": "uint256"
            },
            {
              "internalType": "string",
              "name": "refreshToken",
              "type": "string"
            }
          ],
          "internalType": "struct ChainHabits.UserDetails",
          "name": "",
          "type": "tuple"
        }
      ],
      "stateMutability": "view",
      "type": "function"
    },
    {
      "inputs": [
        {
          "internalType": "address",
          "name": "_user",
          "type": "address"
        },
        {
          "internalType": "address",
          "name": "_token",
          "type": "address"
        }
      ],
      "name": "getUserStake",
      "outputs": [
        {
          "internalType": "uint256",
          "name": "",
          "type": "uint256"
        }
      ],
      "stateMutability": "view",
      "type": "function"
    },
    {
      "inputs": [
        {
          "internalType": "uint256[]",
          "name": "_challengeId",
          "type": "uint256[]"
        },
        {
          "internalType": "address[]",
          "name": "_user",
          "type": "address[]"
        },
        {
          "internalType": "bool[]",
          "name": "failed",
          "type": "bool[]"
        }
      ],
      "name": "handleBulkIntervalReview",
      "outputs": [],
      "stateMutability": "nonpayable",
      "type": "function"
    },
    {
      "inputs": [
        {
          "internalType": "uint256",
          "name": "_challengeID",
          "type": "uint256"
        },
        {
          "internalType": "uint256",
          "name": "_stakeForfeited",
          "type": "uint256"
        },
        {
          "internalType": "address",
          "name": "_userAddress",
          "type": "address"
        },
        {
          "internalType": "address",
          "name": "_erc20Address",
          "type": "address"
        }
      ],
      "name": "handleCompleteChallengeERC20",
      "outputs": [],
      "stateMutability": "nonpayable",
      "type": "function"
    },
    {
      "inputs": [
        {
          "internalType": "uint256",
          "name": "_challengeID",
          "type": "uint256"
        },
        {
          "internalType": "uint256",
          "name": "_stakeForfeited",
          "type": "uint256"
        },
        {
          "internalType": "address",
          "name": "_userAddress",
          "type": "address"
        },
        {
          "internalType": "address",
          "name": "_erc20Address",
          "type": "address"
        }
      ],
      "name": "handleCompleteChallengeETH",
      "outputs": [],
      "stateMutability": "nonpayable",
      "type": "function"
    },
    {
      "inputs": [
        {
          "internalType": "uint256",
          "name": "_challengeId",
          "type": "uint256"
        },
        {
          "internalType": "address",
          "name": "_user",
          "type": "address"
        },
        {
          "internalType": "bool",
          "name": "failed",
          "type": "bool"
        }
      ],
      "name": "handleIntervalReview",
      "outputs": [],
      "stateMutability": "nonpayable",
      "type": "function"
    },
    {
      "inputs": [
        {
          "internalType": "address",
          "name": "",
          "type": "address"
        }
      ],
      "name": "isUserRegisteredTable",
      "outputs": [
        {
          "internalType": "bool",
          "name": "",
          "type": "bool"
        }
      ],
      "stateMutability": "view",
      "type": "function"
    },
    {
      "inputs": [],
      "name": "owner",
      "outputs": [
        {
          "internalType": "address",
          "name": "",
          "type": "address"
        }
      ],
      "stateMutability": "view",
      "type": "function"
    },
    {
      "inputs": [
        {
          "internalType": "uint256",
          "name": "userID",
          "type": "uint256"
        },
        {
          "internalType": "string",
          "name": "_refreshToken",
          "type": "string"
        }
      ],
      "name": "registerNewUser",
      "outputs": [],
      "stateMutability": "nonpayable",
      "type": "function"
    },
    {
      "inputs": [],
      "name": "renounceOwnership",
      "outputs": [],
      "stateMutability": "nonpayable",
      "type": "function"
    },
    {
      "inputs": [
        {
          "internalType": "address",
          "name": "newOwner",
          "type": "address"
        }
      ],
      "name": "transferOwnership",
      "outputs": [],
      "stateMutability": "nonpayable",
      "type": "function"
    },
    {
      "inputs": [
        {
          "internalType": "address",
          "name": "_user",
          "type": "address"
        },
        {
          "internalType": "string",
          "name": "_refreshToken",
          "type": "string"
        }
      ],
      "name": "updateRefreshToken",
      "outputs": [],
      "stateMutability": "nonpayable",
      "type": "function"
    },
    {
      "inputs": [
        {
          "internalType": "address",
          "name": "",
          "type": "address"
        }
      ],
      "name": "userHasLiveChallenge",
      "outputs": [
        {
          "internalType": "bool",
          "name": "",
          "type": "bool"
        }
      ],
      "stateMutability": "view",
      "type": "function"
    },
    {
      "inputs": [
        {
          "internalType": "address",
          "name": "_erc20Address",
          "type": "address"
        }
      ],
      "name": "withdrawFunds",
      "outputs": [],
      "stateMutability": "nonpayable",
      "type": "function"
    }
  ],
  "transactionHash": "0xeb0bfa9539f50f4cdd415588a1cda114ae623e8fbfa9bd196e45c4cb5e40ca8e",
  "args": [],
  "numDeployments": 1,
  "solcInputHash": "e76b480d71d16c0dd544c0f889b95ae0",
  "bytecode": "0x608060405234801561001057600080fd5b50600160005561001f33610024565b610076565b600180546001600160a01b038381166001600160a01b0319831681179093556040519116919082907f8be0079c531659141344cd1fd0a4f28419497f9722a3daafe3b4186f6b6457e090600090a35050565b6122d5806100856000396000f3fe60806040526004361061012a5760003560e01c8063715018a6116100ab578063addb889d1161006f578063addb889d146104f0578063cc3d967b14610520578063d0a2a9401461054d578063e30a39241461057d578063f2fde38b146105b3578063fb24a703146105d357600080fd5b8063715018a61461042c57806383debc40146104415780638da5cb5b14610488578063905d0c11146104b057806391ecc316146104d057600080fd5b80632eb32487116100f25780632eb32487146102705780633710d4c7146102915780633d40a54f146102b15780634aeb8b60146103df57806368742da61461040c57600080fd5b80630d63efa71461012f578063113adc8014610151578063232171d21461021057806326722884146102305780632d60879b14610250575b600080fd5b34801561013b57600080fd5b5061014f61014a366004611af3565b6105f3565b005b34801561015d57600080fd5b506101c161016c366004611b46565b60076020526000908152604090205460ff8082169161010081048216916201000082048116916301000000810490911690640100000000810465ffffffffffff1690600160501b90046001600160a01b031686565b6040805160ff9788168152958716602087015293909516928401929092521515606083015265ffffffffffff1660808201526001600160a01b0390911660a082015260c0015b60405180910390f35b34801561021c57600080fd5b5061014f61022b366004611ba4565b610627565b34801561023c57600080fd5b5061014f61024b366004611c3e565b6107a3565b34801561025c57600080fd5b5061014f61026b366004611c7f565b6107d9565b61028361027e366004611cd0565b6108e4565b604051908152602001610207565b34801561029d57600080fd5b506102836102ac366004611c3e565b610ea1565b3480156102bd57600080fd5b5061037e6102cc366004611b46565b6040805160c081018252600080825260208201819052918101829052606081018290526080810182905260a081019190915250600090815260076020908152604091829020825160c081018452905460ff808216835261010082048116938301939093526201000081048316938201939093526301000000830490911615156060820152640100000000820465ffffffffffff166080820152600160501b9091046001600160a01b031660a082015290565b60408051825160ff908116825260208085015182169083015283830151169181019190915260608083015115159082015260808083015165ffffffffffff169082015260a0918201516001600160a01b03169181019190915260c001610207565b3480156103eb57600080fd5b506102836103fa366004611d70565b60096020526000908152604090205481565b34801561041857600080fd5b5061014f610427366004611d70565b610f2b565b34801561043857600080fd5b5061014f61118f565b34801561044d57600080fd5b5061047861045c366004611b46565b6000908152600760205260409020546301000000900460ff1690565b6040519015158152602001610207565b34801561049457600080fd5b506001546040516001600160a01b039091168152602001610207565b3480156104bc57600080fd5b5061014f6104cb366004611d92565b6111a3565b3480156104dc57600080fd5b5061014f6104eb366004611d92565b61140a565b3480156104fc57600080fd5b5061047861050b366004611d70565b60046020526000908152604090205460ff1681565b34801561052c57600080fd5b5061054061053b366004611d70565b611659565b6040516102079190611e1e565b34801561055957600080fd5b50610478610568366004611d70565b60056020526000908152604090205460ff1681565b34801561058957600080fd5b50610283610598366004611d70565b6001600160a01b031660009081526008602052604090205490565b3480156105bf57600080fd5b5061014f6105ce366004611d70565b611733565b3480156105df57600080fd5b5061014f6105ee366004611e4b565b6117a9565b6105fb611896565b6001600160a01b0383166000908152600660205260409020600101610621828483611f1d565b50505050565b61062f611896565b60005b61ffff811686111561079a5782828261ffff1681811061065457610654611fde565b90506020020160208101906106699190611ff4565b156106d2576007600088888461ffff1681811061068857610688611fde565b60209081029290920135835250810191909152604001600020805462010000900460ff169060026106b883612027565b91906101000a81548160ff021916908360ff160217905550505b86868261ffff168181106106e8576106e8611fde565b905060200201357fbb6465b408d119d4c36c57969ba1b88461ebcb8a353206c139218374793e25e086868461ffff1681811061072657610726611fde565b905060200201602081019061073b9190611d70565b85858561ffff1681811061075157610751611fde565b90506020020160208101906107669190611ff4565b604080516001600160a01b03909316835290151560208301520160405180910390a28061079281612046565b915050610632565b50505050505050565b6107ab611896565b6001600160a01b039182166000908152600a6020526040902080546001600160a01b03191691909216179055565b6107e1611896565b6000838152600760205260409020546301000000900460ff16610817576040516350bcced360e11b815260040160405180910390fd5b82610837836001600160a01b031660009081526008602052604090205490565b1461085557604051637db115b960e11b815260040160405180910390fd5b801561089a576000838152600760205260409020805462010000900460ff1690600261088083612027565b91906101000a81548160ff021916908360ff160217905550505b604080516001600160a01b0384168152821515602082015284917fbb6465b408d119d4c36c57969ba1b88461ebcb8a353206c139218374793e25e0910160405180910390a2505050565b3360008181526004602052604081205490919060ff1661091757604051632ac0e50f60e11b815260040160405180910390fd5b3360009081526005602052604090205460ff1615610948576040516309c71c6d60e11b815260040160405180910390fd5b6001600160a01b038616158061096657506001600160a01b03861633145b156109845760405163e11ddadb60e01b815260040160405180910390fd5b6000806001600160a01b03861615610c1d57846000036109b757604051634966419160e01b815260040160405180910390fd5b6001600160a01b038087166000908152600a602052604090205416806109f0576040516350d3188d60e01b815260040160405180910390fd5b60006109fb826118f0565b9050610a0c816402540be400612067565b610a1e88670de0b6b3a7640000612067565b610a28919061207e565b6040516370a0823160e01b8152336004820152909450889085906001600160a01b038316906370a0823190602401602060405180830381865afa158015610a73573d6000803e3d6000fd5b505050506040513d601f19601f82011682018060405250810190610a9791906120a0565b1015610ab65760405163a9c748cf60e01b815260040160405180910390fd5b604051636eb1769f60e11b815233600482015230602482015285906001600160a01b0383169063dd62ed3e90604401602060405180830381865afa158015610b02573d6000803e3d6000fd5b505050506040513d601f19601f82011682018060405250810190610b2691906120a0565b1015610b4557604051632549682960e21b815260040160405180910390fd5b6040516323b872dd60e01b8152336004820152306024820152604481018690526001600160a01b038216906323b872dd906064016020604051808303816000875af1158015610b98573d6000803e3d6000fd5b505050506040513d601f19601f82011682018060405250810190610bbc91906120b9565b610bd9576040516338f9005360e11b815260040160405180910390fd5b336000908152600b602090815260408083206001600160a01b038d168452909152812080548a9650879290610c0f9084906120d6565b90915550610c3e9350505050565b34600003610c3e5760405163b8970e7d60e01b815260040160405180910390fd5b610c4c600280546001019055565b60025493506040518060c001604052808b60ff1681526020018a60ff168152602001600060ff1681526020016001151581526020014265ffffffffffff168152602001896001600160a01b03168152506007600086815260200190815260200160002060008201518160000160006101000a81548160ff021916908360ff16021790555060208201518160000160016101000a81548160ff021916908360ff16021790555060408201518160000160026101000a81548160ff021916908360ff16021790555060608201518160000160036101000a81548160ff02191690831515021790555060808201518160000160046101000a81548165ffffffffffff021916908365ffffffffffff16021790555060a082015181600001600a6101000a8154816001600160a01b0302191690836001600160a01b031602179055509050508360086000336001600160a01b03166001600160a01b031681526020019081526020016000208190555060006001600160a01b0316866001600160a01b031603610e045750336000908152600b60209081526040808320838052909152812080543492839291610dfe9084906120d6565b90915550505b600160056000336001600160a01b03166001600160a01b0316815260200190815260200160002060006101000a81548160ff021916908315150217905550336001600160a01b0316847f30fb1bf04d8122226de25fef6ab4b12502c98d1e295f77bd346119715461d8db8e8e8e8e8d8f898f604051610e8a9897969594939291906120e9565b60405180910390a350505098975050505050505050565b6000610eb56001546001600160a01b031690565b6001600160a01b0316336001600160a01b031614158015610edf5750336001600160a01b03841614155b15610efd5760405163250c1a4160e21b815260040160405180910390fd5b506001600160a01b038083166000908152600b60209081526040808320938516835292905220545b92915050565b610f33611980565b3360008181526004602052604090205460ff16610f6357604051632ac0e50f60e11b815260040160405180910390fd5b3360009081526005602052604090205460ff1615610f94576040516327562e6160e11b815260040160405180910390fd5b336000908152600b602090815260408083206001600160a01b038616845290915281205490819003610fd9576040516329bd6d0160e01b815260040160405180910390fd5b336000908152600b602090815260408083206001600160a01b038716808552925282209190915561109957604051600090339083908381818185875af1925050503d8060008114611046576040519150601f19603f3d011682016040523d82523d6000602084013e61104b565b606091505b50509050806110935760405162461bcd60e51b815260206004820152600f60248201526e151c985b9cd9995c8819985a5b1959608a1b60448201526064015b60405180910390fd5b5061114b565b60405163a9059cbb60e01b81523360048201526024810182905283906001600160a01b0382169063a9059cbb906044016020604051808303816000875af11580156110e8573d6000803e3d6000fd5b505050506040513d601f19601f8201168201806040525081019061110c91906120b9565b6111495760405162461bcd60e51b815260206004820152600e60248201526d1d1c985b9cd9995c91985a5b195960921b604482015260640161108a565b505b60405181815233907feaff4b37086828766ad3268786972c0cd24259d4c87a80f9d3963a3c3d999b0d9060200160405180910390a2505061118c6001600055565b50565b611197611896565b6111a160006119d9565b565b6111ab611896565b6111b3611980565b8215611398576000848152600760209081526040808320546001600160a01b038681168552600b84528285208682168652909352922054600160501b9092041690841115611214576040516367bf03fb60e01b815260040160405180910390fd5b6001600160a01b038084166000908152600b602090815260408083209386168352929052908120805486929061124b90849061214f565b9091555050600085815260076020526040808220805463ff000000191690555163a9059cbb60e01b81526001600160a01b038381166004830152602482018790528492919083169063a9059cbb906044016020604051808303816000875af11580156112bb573d6000803e3d6000fd5b505050506040513d601f19601f820116820180604052508101906112df91906120b9565b905080611394576001600160a01b0383166000908152600960205260408120805488929061130e9084906120d6565b909155505060408051808201909152601881527f666f72666569745472616e73616374696f6e4661696c65640000000000000000602082015261135090611a2b565b826001600160a01b03167f5d8db02abf15860359f6352f1047af87398b4b3885000b032fa7ffc8854b45718760405161138b91815260200190565b60405180910390a25b5050505b6001600160a01b03821660008181526008602090815260408083208390556005825291829020805460ff1916905581516001815290810186905286917ff531285ca704745eddab0f3ffd7e758c9d25cc5307e3c886d15ed35f880c6ee191015b60405180910390a36106216001600055565b611412611896565b61141a611980565b6001600160a01b0381161561147c5760405162461bcd60e51b815260206004820152602260248201527f546869732066756e6374696f6e2065787065637473207a65726f206164647265604482015261737360f01b606482015260840161108a565b8215611398576000848152600760209081526040808320546001600160a01b038681168552600b84528285208682168652909352922054600160501b90920416908411156114dd576040516367bf03fb60e01b815260040160405180910390fd5b6001600160a01b038084166000908152600b602090815260408083209386168352929052908120805486929061151490849061214f565b9091555050600085815260076020526040808220805463ff00000019169055516001600160a01b0383169086908381818185875af1925050503d8060008114611579576040519150601f19603f3d011682016040523d82523d6000602084013e61157e565b606091505b50509050806115f3576001600160a01b038216600090815260096020526040812080548792906115af9084906120d6565b90915550506040518581526001600160a01b038316907f5d8db02abf15860359f6352f1047af87398b4b3885000b032fa7ffc8854b45719060200160405180910390a25b50506001600160a01b03821660008181526008602090815260408083208390556005825291829020805460ff1916905581516001815290810186905286917ff531285ca704745eddab0f3ffd7e758c9d25cc5307e3c886d15ed35f880c6ee191016113f8565b6040805180820190915260008152606060208201526001600160a01b03821660009081526006602090815260409182902082518084019093528054835260018101805491928401916116aa90611e94565b80601f01602080910402602001604051908101604052809291908181526020018280546116d690611e94565b80156117235780601f106116f857610100808354040283529160200191611723565b820191906000526020600020905b81548152906001019060200180831161170657829003601f168201915b5050505050815250509050919050565b61173b611896565b6001600160a01b0381166117a05760405162461bcd60e51b815260206004820152602660248201527f4f776e61626c653a206e6577206f776e657220697320746865207a65726f206160448201526564647265737360d01b606482015260840161108a565b61118c816119d9565b3360008181526004602052604090205460ff16156117da57604051632f22a0e560e01b815260040160405180910390fd5b604051806040016040528085815260200184848080601f01602080910402602001604051908101604052809392919081815260200183838082843760009201829052509390945250503381526006602090815260409091208351815590830151909150600182019061184c9082612162565b505033600081815260046020526040808220805460ff19166001179055519192507ff382cb45b37e0f2786ad5a8328040a5c6a63584130f9076ba1627d420ffadc8b91a250505050565b6001546001600160a01b031633146111a15760405162461bcd60e51b815260206004820181905260248201527f4f776e61626c653a2063616c6c6572206973206e6f7420746865206f776e6572604482015260640161108a565b600380546001600160a01b0319166001600160a01b03831690811790915560408051633fabe5a360e21b815290516000928392909163feaf968c9160048082019260a0929091908290030181865afa158015611950573d6000803e3d6000fd5b505050506040513d601f19601f82011682018060405250810190611974919061223c565b50919695505050505050565b6002600054036119d25760405162461bcd60e51b815260206004820152601f60248201527f5265656e7472616e637947756172643a207265656e7472616e742063616c6c00604482015260640161108a565b6002600055565b600180546001600160a01b038381166001600160a01b0319831681179093556040519116919082907f8be0079c531659141344cd1fd0a4f28419497f9722a3daafe3b4186f6b6457e090600090a35050565b61118c81604051602401611a3f919061228c565b60408051601f198184030181529190526020810180516001600160e01b031663104c13eb60e21b17905261118c8160006a636f6e736f6c652e6c6f679050600080835160208501845afa505050565b80356001600160a01b0381168114611aa557600080fd5b919050565b60008083601f840112611abc57600080fd5b50813567ffffffffffffffff811115611ad457600080fd5b602083019150836020828501011115611aec57600080fd5b9250929050565b600080600060408486031215611b0857600080fd5b611b1184611a8e565b9250602084013567ffffffffffffffff811115611b2d57600080fd5b611b3986828701611aaa565b9497909650939450505050565b600060208284031215611b5857600080fd5b5035919050565b60008083601f840112611b7157600080fd5b50813567ffffffffffffffff811115611b8957600080fd5b6020830191508360208260051b8501011115611aec57600080fd5b60008060008060008060608789031215611bbd57600080fd5b863567ffffffffffffffff80821115611bd557600080fd5b611be18a838b01611b5f565b90985096506020890135915080821115611bfa57600080fd5b611c068a838b01611b5f565b90965094506040890135915080821115611c1f57600080fd5b50611c2c89828a01611b5f565b979a9699509497509295939492505050565b60008060408385031215611c5157600080fd5b611c5a83611a8e565b9150611c6860208401611a8e565b90509250929050565b801515811461118c57600080fd5b600080600060608486031215611c9457600080fd5b83359250611ca460208501611a8e565b91506040840135611cb481611c71565b809150509250925092565b803560ff81168114611aa557600080fd5b60008060008060008060008060e0898b031215611cec57600080fd5b883567ffffffffffffffff811115611d0357600080fd5b611d0f8b828c01611aaa565b9099509750611d22905060208a01611cbf565b9550611d3060408a01611cbf565b9450611d3e60608a01611a8e565b9350611d4c60808a01611cbf565b9250611d5a60a08a01611a8e565b915060c089013590509295985092959890939650565b600060208284031215611d8257600080fd5b611d8b82611a8e565b9392505050565b60008060008060808587031215611da857600080fd5b8435935060208501359250611dbf60408601611a8e565b9150611dcd60608601611a8e565b905092959194509250565b6000815180845260005b81811015611dfe57602081850181015186830182015201611de2565b506000602082860101526020601f19601f83011685010191505092915050565b602081528151602082015260006020830151604080840152611e436060840182611dd8565b949350505050565b600080600060408486031215611e6057600080fd5b83359250602084013567ffffffffffffffff811115611b2d57600080fd5b634e487b7160e01b600052604160045260246000fd5b600181811c90821680611ea857607f821691505b602082108103611ec857634e487b7160e01b600052602260045260246000fd5b50919050565b601f821115611f1857600081815260208120601f850160051c81016020861015611ef55750805b601f850160051c820191505b81811015611f1457828155600101611f01565b5050505b505050565b67ffffffffffffffff831115611f3557611f35611e7e565b611f4983611f438354611e94565b83611ece565b6000601f841160018114611f7d5760008515611f655750838201355b600019600387901b1c1916600186901b178355611fd7565b600083815260209020601f19861690835b82811015611fae5786850135825560209485019460019092019101611f8e565b5086821015611fcb5760001960f88860031b161c19848701351681555b505060018560011b0183555b5050505050565b634e487b7160e01b600052603260045260246000fd5b60006020828403121561200657600080fd5b8135611d8b81611c71565b634e487b7160e01b600052601160045260246000fd5b600060ff821660ff810361203d5761203d612011565b60010192915050565b600061ffff80831681810361205d5761205d612011565b6001019392505050565b8082028115828204841417610f2557610f25612011565b60008261209b57634e487b7160e01b600052601260045260246000fd5b500490565b6000602082840312156120b257600080fd5b5051919050565b6000602082840312156120cb57600080fd5b8151611d8b81611c71565b80820180821115610f2557610f25612011565b60e081528760e08201526000610100898b8285013760008a840182015260ff98891660208401529688166040830152509390951660608401526001600160a01b03918216608084015260a083015290921660c0830152601f909201601f19160101919050565b81810381811115610f2557610f25612011565b815167ffffffffffffffff81111561217c5761217c611e7e565b6121908161218a8454611e94565b84611ece565b602080601f8311600181146121c557600084156121ad5750858301515b600019600386901b1c1916600185901b178555611f14565b600085815260208120601f198616915b828110156121f4578886015182559484019460019091019084016121d5565b50858210156122125787850151600019600388901b60f8161c191681555b5050505050600190811b01905550565b805169ffffffffffffffffffff81168114611aa557600080fd5b600080600080600060a0868803121561225457600080fd5b61225d86612222565b945060208601519350604086015192506060860151915061228060808701612222565b90509295509295909350565b602081526000611d8b6020830184611dd856fea2646970667358221220f989a0637b14558269eeb3d075afb2d60872292b8b9f5c0432bc0043ed8f4cd564736f6c63430008130033",
  "devdoc": {
    "kind": "dev",
    "methods": {
      "owner()": {
        "details": "Returns the address of the current owner."
      },
      "renounceOwnership()": {
        "details": "Leaves the contract without owner. It will not be possible to call `onlyOwner` functions. Can only be called by the current owner. NOTE: Renouncing ownership will leave the contract without an owner, thereby disabling any functionality that is only available to the owner."
      },
      "transferOwnership(address)": {
        "details": "Transfers ownership of the contract to a new account (`newOwner`). Can only be called by the current owner."
      }
    },
    "version": 1
  },
  "userdoc": {
    "kind": "user",
    "methods": {},
    "version": 1
  },
  "storageLayout": {
    "storage": [
      {
        "astId": 169,
        "contract": "contracts/ChainHabits.sol:ChainHabits",
        "label": "_status",
        "offset": 0,
        "slot": "0",
        "type": "t_uint256"
      },
      {
        "astId": 53,
        "contract": "contracts/ChainHabits.sol:ChainHabits",
        "label": "_owner",
        "offset": 0,
        "slot": "1",
        "type": "t_address"
      },
      {
        "astId": 487,
        "contract": "contracts/ChainHabits.sol:ChainHabits",
        "label": "_challengeIdCounter",
        "offset": 0,
        "slot": "2",
        "type": "t_struct(Counter)337_storage"
      },
      {
        "astId": 490,
        "contract": "contracts/ChainHabits.sol:ChainHabits",
        "label": "dataFeed",
        "offset": 0,
        "slot": "3",
        "type": "t_contract(AggregatorV3Interface)45"
      },
      {
        "astId": 512,
        "contract": "contracts/ChainHabits.sol:ChainHabits",
        "label": "isUserRegisteredTable",
        "offset": 0,
        "slot": "4",
        "type": "t_mapping(t_address,t_bool)"
      },
      {
        "astId": 516,
        "contract": "contracts/ChainHabits.sol:ChainHabits",
        "label": "userHasLiveChallenge",
        "offset": 0,
        "slot": "5",
        "type": "t_mapping(t_address,t_bool)"
      },
      {
        "astId": 521,
        "contract": "contracts/ChainHabits.sol:ChainHabits",
        "label": "userTable",
        "offset": 0,
        "slot": "6",
        "type": "t_mapping(t_address,t_struct(UserDetails)495_storage)"
      },
      {
        "astId": 526,
        "contract": "contracts/ChainHabits.sol:ChainHabits",
        "label": "challengeTable",
        "offset": 0,
        "slot": "7",
        "type": "t_mapping(t_uint256,t_struct(ChallengeDetails)508_storage)"
      },
      {
        "astId": 530,
        "contract": "contracts/ChainHabits.sol:ChainHabits",
        "label": "usersCurrentChallenge",
        "offset": 0,
        "slot": "8",
        "type": "t_mapping(t_address,t_uint256)"
      },
      {
        "astId": 534,
        "contract": "contracts/ChainHabits.sol:ChainHabits",
        "label": "ForfeitedFundsToBeCollected",
        "offset": 0,
        "slot": "9",
        "type": "t_mapping(t_address,t_uint256)"
      },
      {
        "astId": 538,
        "contract": "contracts/ChainHabits.sol:ChainHabits",
        "label": "priceFeedAddress",
        "offset": 0,
        "slot": "10",
        "type": "t_mapping(t_address,t_address)"
      },
      {
        "astId": 544,
        "contract": "contracts/ChainHabits.sol:ChainHabits",
        "label": "currentStakedByUser",
        "offset": 0,
        "slot": "11",
        "type": "t_mapping(t_address,t_mapping(t_address,t_uint256))"
      }
    ],
    "types": {
      "t_address": {
        "encoding": "inplace",
        "label": "address",
        "numberOfBytes": "20"
      },
      "t_bool": {
        "encoding": "inplace",
        "label": "bool",
        "numberOfBytes": "1"
      },
      "t_contract(AggregatorV3Interface)45": {
        "encoding": "inplace",
        "label": "contract AggregatorV3Interface",
        "numberOfBytes": "20"
      },
      "t_mapping(t_address,t_address)": {
        "encoding": "mapping",
        "key": "t_address",
        "label": "mapping(address => address)",
        "numberOfBytes": "32",
        "value": "t_address"
      },
      "t_mapping(t_address,t_bool)": {
        "encoding": "mapping",
        "key": "t_address",
        "label": "mapping(address => bool)",
        "numberOfBytes": "32",
        "value": "t_bool"
      },
      "t_mapping(t_address,t_mapping(t_address,t_uint256))": {
        "encoding": "mapping",
        "key": "t_address",
        "label": "mapping(address => mapping(address => uint256))",
        "numberOfBytes": "32",
        "value": "t_mapping(t_address,t_uint256)"
      },
      "t_mapping(t_address,t_struct(UserDetails)495_storage)": {
        "encoding": "mapping",
        "key": "t_address",
        "label": "mapping(address => struct ChainHabits.UserDetails)",
        "numberOfBytes": "32",
        "value": "t_struct(UserDetails)495_storage"
      },
      "t_mapping(t_address,t_uint256)": {
        "encoding": "mapping",
        "key": "t_address",
        "label": "mapping(address => uint256)",
        "numberOfBytes": "32",
        "value": "t_uint256"
      },
      "t_mapping(t_uint256,t_struct(ChallengeDetails)508_storage)": {
        "encoding": "mapping",
        "key": "t_uint256",
        "label": "mapping(uint256 => struct ChainHabits.ChallengeDetails)",
        "numberOfBytes": "32",
        "value": "t_struct(ChallengeDetails)508_storage"
      },
      "t_string_storage": {
        "encoding": "bytes",
        "label": "string",
        "numberOfBytes": "32"
      },
      "t_struct(ChallengeDetails)508_storage": {
        "encoding": "inplace",
        "label": "struct ChainHabits.ChallengeDetails",
        "members": [
          {
            "astId": 497,
            "contract": "contracts/ChainHabits.sol:ChainHabits",
            "label": "targetMiles",
            "offset": 0,
            "slot": "0",
            "type": "t_uint8"
          },
          {
            "astId": 499,
            "contract": "contracts/ChainHabits.sol:ChainHabits",
            "label": "NoOfWeeks",
            "offset": 1,
            "slot": "0",
            "type": "t_uint8"
          },
          {
            "astId": 501,
            "contract": "contracts/ChainHabits.sol:ChainHabits",
            "label": "failedWeeks",
            "offset": 2,
            "slot": "0",
            "type": "t_uint8"
          },
          {
            "astId": 503,
            "contract": "contracts/ChainHabits.sol:ChainHabits",
            "label": "isLive",
            "offset": 3,
            "slot": "0",
            "type": "t_bool"
          },
          {
            "astId": 505,
            "contract": "contracts/ChainHabits.sol:ChainHabits",
            "label": "challengeStartDate",
            "offset": 4,
            "slot": "0",
            "type": "t_uint48"
          },
          {
            "astId": 507,
            "contract": "contracts/ChainHabits.sol:ChainHabits",
            "label": "defaultAddress",
            "offset": 10,
            "slot": "0",
            "type": "t_address"
          }
        ],
        "numberOfBytes": "32"
      },
      "t_struct(Counter)337_storage": {
        "encoding": "inplace",
        "label": "struct Counters.Counter",
        "members": [
          {
            "astId": 336,
            "contract": "contracts/ChainHabits.sol:ChainHabits",
            "label": "_value",
            "offset": 0,
            "slot": "0",
            "type": "t_uint256"
          }
        ],
        "numberOfBytes": "32"
      },
      "t_struct(UserDetails)495_storage": {
        "encoding": "inplace",
        "label": "struct ChainHabits.UserDetails",
        "members": [
          {
            "astId": 492,
            "contract": "contracts/ChainHabits.sol:ChainHabits",
            "label": "userID",
            "offset": 0,
            "slot": "0",
            "type": "t_uint256"
          },
          {
            "astId": 494,
            "contract": "contracts/ChainHabits.sol:ChainHabits",
            "label": "refreshToken",
            "offset": 0,
            "slot": "1",
            "type": "t_string_storage"
          }
        ],
        "numberOfBytes": "64"
      },
      "t_uint256": {
        "encoding": "inplace",
        "label": "uint256",
        "numberOfBytes": "32"
      },
      "t_uint48": {
        "encoding": "inplace",
        "label": "uint48",
        "numberOfBytes": "6"
      },
      "t_uint8": {
        "encoding": "inplace",
        "label": "uint8",
        "numberOfBytes": "1"
      }
    }
  }
}