{
  "address": "0x52caE9c670B19d3612848B1aa8c587EC73EaC6A7",
  "abi": [
    {
      "inputs": [],
      "stateMutability": "nonpayable",
      "type": "constructor"
    },
    {
      "inputs": [],
      "name": "CHAINHABITS__UserAlreadyRegistered",
      "type": "error"
    },
    {
      "inputs": [],
      "name": "CHAINHABITS__UserNotYetRegistered",
      "type": "error"
    },
    {
      "inputs": [],
      "name": "CHAINHABITS__UsernameTaken",
      "type": "error"
    },
    {
      "anonymous": false,
      "inputs": [
        {
          "indexed": false,
          "internalType": "string",
          "name": "Objective",
          "type": "string"
        },
        {
          "indexed": false,
          "internalType": "uint8",
          "name": "startingMiles",
          "type": "uint8"
        },
        {
          "indexed": false,
          "internalType": "uint8",
          "name": "NumberofWeeks",
          "type": "uint8"
        },
        {
          "indexed": false,
          "internalType": "uint256",
          "name": "Deadline",
          "type": "uint256"
        }
      ],
      "name": "NewChallengeCreated",
      "type": "event"
    },
    {
      "anonymous": false,
      "inputs": [
        {
          "indexed": false,
          "internalType": "address",
          "name": "user",
          "type": "address"
        },
        {
          "indexed": false,
          "internalType": "string",
          "name": "username",
          "type": "string"
        }
      ],
      "name": "NewUserRegistered",
      "type": "event"
    },
    {
      "inputs": [],
      "name": "admin",
      "outputs": [
        {
          "internalType": "address",
          "name": "",
          "type": "address"
        }
      ],
      "stateMutability": "view",
      "type": "function"
    },
    {
      "inputs": [
        {
          "internalType": "string",
          "name": "_obj",
          "type": "string"
        },
        {
          "internalType": "uint8",
          "name": "_startingMiles",
          "type": "uint8"
        },
        {
          "internalType": "uint8",
          "name": "_weeks",
          "type": "uint8"
        }
      ],
      "name": "createNewChallenge",
      "outputs": [
        {
          "internalType": "uint256",
          "name": "",
          "type": "uint256"
        }
      ],
      "stateMutability": "payable",
      "type": "function"
    },
    {
      "inputs": [
        {
          "internalType": "uint256",
          "name": "_challengeId",
          "type": "uint256"
        }
      ],
      "name": "getChallengeDetails",
      "outputs": [
        {
          "components": [
            {
              "internalType": "string",
              "name": "objective",
              "type": "string"
            },
            {
              "internalType": "uint8",
              "name": "startingMiles",
              "type": "uint8"
            },
            {
              "internalType": "uint8",
              "name": "NoOfWeeks",
              "type": "uint8"
            },
            {
              "internalType": "bool",
              "name": "isLive",
              "type": "bool"
            },
            {
              "internalType": "uint256",
              "name": "deadline",
              "type": "uint256"
            }
          ],
          "internalType": "struct ChainHabits.ChallengeDetails",
          "name": "",
          "type": "tuple"
        }
      ],
      "stateMutability": "view",
      "type": "function"
    },
    {
      "inputs": [
        {
          "internalType": "address",
          "name": "_user",
          "type": "address"
        }
      ],
      "name": "getUserDetails",
      "outputs": [
        {
          "components": [
            {
              "internalType": "string",
              "name": "username",
              "type": "string"
            },
            {
              "internalType": "uint256",
              "name": "challengeTally",
              "type": "uint256"
            },
            {
              "internalType": "uint256",
              "name": "SuccessfulChallenges",
              "type": "uint256"
            },
            {
              "internalType": "uint256",
              "name": "TotalStaked",
              "type": "uint256"
            },
            {
              "internalType": "uint256",
              "name": "TotalDonated",
              "type": "uint256"
            },
            {
              "internalType": "uint256",
              "name": "userID",
              "type": "uint256"
            },
            {
              "internalType": "string",
              "name": "accessToken",
              "type": "string"
            },
            {
              "internalType": "string",
              "name": "refreshToken",
              "type": "string"
            }
          ],
          "internalType": "struct ChainHabits.UserDetails",
          "name": "",
          "type": "tuple"
        }
      ],
      "stateMutability": "view",
      "type": "function"
    },
    {
      "inputs": [
        {
          "internalType": "string",
          "name": "",
          "type": "string"
        }
      ],
      "name": "isUserNameTaken",
      "outputs": [
        {
          "internalType": "bool",
          "name": "",
          "type": "bool"
        }
      ],
      "stateMutability": "view",
      "type": "function"
    },
    {
      "inputs": [
        {
          "internalType": "address",
          "name": "",
          "type": "address"
        }
      ],
      "name": "isUserRegisteredTable",
      "outputs": [
        {
          "internalType": "bool",
          "name": "",
          "type": "bool"
        }
      ],
      "stateMutability": "view",
      "type": "function"
    },
    {
      "inputs": [
        {
          "internalType": "string",
          "name": "_username",
          "type": "string"
        },
        {
          "internalType": "string",
          "name": "_accessToken",
          "type": "string"
        },
        {
          "internalType": "string",
          "name": "_refreshToken",
          "type": "string"
        }
      ],
      "name": "registerNewUser",
      "outputs": [],
      "stateMutability": "nonpayable",
      "type": "function"
    }
  ],
  "transactionHash": "0xc7d8ce9c5d9bc9ad75dcc4831272250588ded821c239a63b965900aa40178116",
  "args": [],
  "numDeployments": 3,
  "solcInputHash": "1a94d1b7daf354b5e2b1ee97b7d69b6e",
  "bytecode": "0x608060405234801561001057600080fd5b50600180546001600160a01b03191633179055610f32806100326000396000f3fe6080604052600436106100705760003560e01c8063611bbbf51161004e578063611bbbf514610117578063addb889d14610139578063cc3d967b14610169578063f851a4401461019657600080fd5b80633d40a54f146100755780633d4a068d146100ab5780635f5dc345146100f6575b600080fd5b34801561008157600080fd5b50610095610090366004610909565b6101ce565b6040516100a29190610968565b60405180910390f35b3480156100b757600080fd5b506100e66100c63660046109d6565b805160208183018101805160028252928201919093012091525460ff1681565b60405190151581526020016100a2565b610109610104366004610ae6565b6102de565b6040519081526020016100a2565b34801561012357600080fd5b50610137610132366004610b4b565b610485565b005b34801561014557600080fd5b506100e6610154366004610be5565b60036020526000908152604090205460ff1681565b34801561017557600080fd5b50610189610184366004610be5565b6106af565b6040516100a29190610c15565b3480156101a257600080fd5b506001546101b6906001600160a01b031681565b6040516001600160a01b0390911681526020016100a2565b6040805160a08101825260608082526000602083018190529282018390528101829052608081019190915260008281526005602052604090819020815160a0810190925280548290829061022190610cab565b80601f016020809104026020016040519081016040528092919081815260200182805461024d90610cab565b801561029a5780601f1061026f5761010080835404028352916020019161029a565b820191906000526020600020905b81548152906001019060200180831161027d57829003601f168201915b5050509183525050600182015460ff808216602084015261010082048116604084015262010000909104161515606082015260029091015460809091015292915050565b3360008181526003602052604081205490919060ff1661031157604051632ac0e50f60e11b815260040160405180910390fd5b600080549081908061032283610cfb565b909155506000905061033a60ff861662093a80610d14565b6103499062ffffff1642610d3b565b6040805160c06020601f8c01819004028201810190925260a081018a81529293509182918b908b9081908501838280828437600092018290525093855250505060ff808a166020808501919091529089166040808501919091526001606085015260809093018590528582526005905220815181906103c89082610da3565b506020828101516001808401805460408088015160608901511515620100000262ff00001960ff9283166101000261ffff19909516929097169190911792909217949094161790556080909401516002909301929092553360009081526006825282812080549485018155815220909101839055517f977560e53e20989d216e3986d05a29d88d4614e549c5022dba2a3221e85fc02a90610472908a908a908a908a908790610e8c565b60405180910390a1509695505050505050565b3360008181526003602052604090205460ff16156104b657604051632f22a0e560e01b815260040160405180910390fd5b600287876040516104c8929190610ebe565b9081526040519081900360200190205460ff16156104f957604051637cb547f560e11b815260040160405180910390fd5b60405180610100016040528088888080601f016020809104026020016040519081016040528093929190818152602001838380828437600092018290525093855250505060208083018290526040808401839052606084018390526080840183905260a08401929092528151601f890182900482028101820190925287825260c0909201918890889081908401838280828437600092019190915250505090825250604080516020601f8701819004810282018101909252858152918101919086908690819084018382808284376000920182905250939094525050338152600460205260409020825190915081906105f29082610da3565b506020820151600182015560408201516002820155606082015160038201556080820151600482015560a0820151600582015560c082015160068201906106399082610da3565b5060e0820151600782019061064e9082610da3565b50503360008181526003602052604090819020805460ff19166001179055517f1d2b3529f3edbf84c2fbf46a16fa81880bd170f19142f18267f113903389a6dc925061069e91908a908a90610ece565b60405180910390a150505050505050565b6106f760405180610100016040528060608152602001600081526020016000815260200160008152602001600081526020016000815260200160608152602001606081525090565b6001600160a01b038216600090815260046020526040908190208151610100810190925280548290829061072a90610cab565b80601f016020809104026020016040519081016040528092919081815260200182805461075690610cab565b80156107a35780601f10610778576101008083540402835291602001916107a3565b820191906000526020600020905b81548152906001019060200180831161078657829003601f168201915b5050505050815260200160018201548152602001600282015481526020016003820154815260200160048201548152602001600582015481526020016006820180546107ee90610cab565b80601f016020809104026020016040519081016040528092919081815260200182805461081a90610cab565b80156108675780601f1061083c57610100808354040283529160200191610867565b820191906000526020600020905b81548152906001019060200180831161084a57829003601f168201915b5050505050815260200160078201805461088090610cab565b80601f01602080910402602001604051908101604052809291908181526020018280546108ac90610cab565b80156108f95780601f106108ce576101008083540402835291602001916108f9565b820191906000526020600020905b8154815290600101906020018083116108dc57829003601f168201915b5050505050815250509050919050565b60006020828403121561091b57600080fd5b5035919050565b6000815180845260005b818110156109485760208185018101518683018201520161092c565b506000602082860101526020601f19601f83011685010191505092915050565b602081526000825160a0602084015261098460c0840182610922565b905060ff602085015116604084015260ff6040850151166060840152606084015115156080840152608084015160a08401528091505092915050565b634e487b7160e01b600052604160045260246000fd5b6000602082840312156109e857600080fd5b813567ffffffffffffffff80821115610a0057600080fd5b818401915084601f830112610a1457600080fd5b813581811115610a2657610a266109c0565b604051601f8201601f19908116603f01168101908382118183101715610a4e57610a4e6109c0565b81604052828152876020848701011115610a6757600080fd5b826020860160208301376000928101602001929092525095945050505050565b60008083601f840112610a9957600080fd5b50813567ffffffffffffffff811115610ab157600080fd5b602083019150836020828501011115610ac957600080fd5b9250929050565b803560ff81168114610ae157600080fd5b919050565b60008060008060608587031215610afc57600080fd5b843567ffffffffffffffff811115610b1357600080fd5b610b1f87828801610a87565b9095509350610b32905060208601610ad0565b9150610b4060408601610ad0565b905092959194509250565b60008060008060008060608789031215610b6457600080fd5b863567ffffffffffffffff80821115610b7c57600080fd5b610b888a838b01610a87565b90985096506020890135915080821115610ba157600080fd5b610bad8a838b01610a87565b90965094506040890135915080821115610bc657600080fd5b50610bd389828a01610a87565b979a9699509497509295939492505050565b600060208284031215610bf757600080fd5b81356001600160a01b0381168114610c0e57600080fd5b9392505050565b6020815260008251610100806020850152610c34610120850183610922565b9150602085015160408501526040850151606085015260608501516080850152608085015160a085015260a085015160c085015260c0850151601f19808685030160e0870152610c848483610922565b935060e0870151915080868503018387015250610ca18382610922565b9695505050505050565b600181811c90821680610cbf57607f821691505b602082108103610cdf57634e487b7160e01b600052602260045260246000fd5b50919050565b634e487b7160e01b600052601160045260246000fd5b600060018201610d0d57610d0d610ce5565b5060010190565b62ffffff818116838216028082169190828114610d3357610d33610ce5565b505092915050565b80820180821115610d4e57610d4e610ce5565b92915050565b601f821115610d9e57600081815260208120601f850160051c81016020861015610d7b5750805b601f850160051c820191505b81811015610d9a57828155600101610d87565b5050505b505050565b815167ffffffffffffffff811115610dbd57610dbd6109c0565b610dd181610dcb8454610cab565b84610d54565b602080601f831160018114610e065760008415610dee5750858301515b600019600386901b1c1916600185901b178555610d9a565b600085815260208120601f198616915b82811015610e3557888601518255948401946001909101908401610e16565b5085821015610e535787850151600019600388901b60f8161c191681555b5050505050600190811b01905550565b81835281816020850137506000828201602090810191909152601f909101601f19169091010190565b608081526000610ea0608083018789610e63565b60ff9586166020840152939094166040820152606001529392505050565b8183823760009101908152919050565b6001600160a01b0384168152604060208201819052600090610ef39083018486610e63565b9594505050505056fea264697066735822122086cac594b3d7aa6cc7ff55e1f1f1c973db09269889525a6b334bae6fe459f64f64736f6c63430008130033",
  "devdoc": {
    "kind": "dev",
    "methods": {},
    "version": 1
  },
  "userdoc": {
    "kind": "user",
    "methods": {},
    "version": 1
  },
  "storageLayout": {
    "storage": [
      {
        "astId": 197,
        "contract": "contracts/ChainHabits.sol:ChainHabits",
        "label": "challengeCounter",
        "offset": 0,
        "slot": "0",
        "type": "t_uint256"
      },
      {
        "astId": 199,
        "contract": "contracts/ChainHabits.sol:ChainHabits",
        "label": "admin",
        "offset": 0,
        "slot": "1",
        "type": "t_address"
      },
      {
        "astId": 203,
        "contract": "contracts/ChainHabits.sol:ChainHabits",
        "label": "isUserNameTaken",
        "offset": 0,
        "slot": "2",
        "type": "t_mapping(t_string_memory_ptr,t_bool)"
      },
      {
        "astId": 207,
        "contract": "contracts/ChainHabits.sol:ChainHabits",
        "label": "isUserRegisteredTable",
        "offset": 0,
        "slot": "3",
        "type": "t_mapping(t_address,t_bool)"
      },
      {
        "astId": 240,
        "contract": "contracts/ChainHabits.sol:ChainHabits",
        "label": "userTable",
        "offset": 0,
        "slot": "4",
        "type": "t_mapping(t_address,t_struct(UserDetails)224_storage)"
      },
      {
        "astId": 245,
        "contract": "contracts/ChainHabits.sol:ChainHabits",
        "label": "challengeTable",
        "offset": 0,
        "slot": "5",
        "type": "t_mapping(t_uint256,t_struct(ChallengeDetails)235_storage)"
      },
      {
        "astId": 250,
        "contract": "contracts/ChainHabits.sol:ChainHabits",
        "label": "usersChallenges",
        "offset": 0,
        "slot": "6",
        "type": "t_mapping(t_address,t_array(t_uint256)dyn_storage)"
      }
    ],
    "types": {
      "t_address": {
        "encoding": "inplace",
        "label": "address",
        "numberOfBytes": "20"
      },
      "t_array(t_uint256)dyn_storage": {
        "base": "t_uint256",
        "encoding": "dynamic_array",
        "label": "uint256[]",
        "numberOfBytes": "32"
      },
      "t_bool": {
        "encoding": "inplace",
        "label": "bool",
        "numberOfBytes": "1"
      },
      "t_mapping(t_address,t_array(t_uint256)dyn_storage)": {
        "encoding": "mapping",
        "key": "t_address",
        "label": "mapping(address => uint256[])",
        "numberOfBytes": "32",
        "value": "t_array(t_uint256)dyn_storage"
      },
      "t_mapping(t_address,t_bool)": {
        "encoding": "mapping",
        "key": "t_address",
        "label": "mapping(address => bool)",
        "numberOfBytes": "32",
        "value": "t_bool"
      },
      "t_mapping(t_address,t_struct(UserDetails)224_storage)": {
        "encoding": "mapping",
        "key": "t_address",
        "label": "mapping(address => struct ChainHabits.UserDetails)",
        "numberOfBytes": "32",
        "value": "t_struct(UserDetails)224_storage"
      },
      "t_mapping(t_string_memory_ptr,t_bool)": {
        "encoding": "mapping",
        "key": "t_string_memory_ptr",
        "label": "mapping(string => bool)",
        "numberOfBytes": "32",
        "value": "t_bool"
      },
      "t_mapping(t_uint256,t_struct(ChallengeDetails)235_storage)": {
        "encoding": "mapping",
        "key": "t_uint256",
        "label": "mapping(uint256 => struct ChainHabits.ChallengeDetails)",
        "numberOfBytes": "32",
        "value": "t_struct(ChallengeDetails)235_storage"
      },
      "t_string_memory_ptr": {
        "encoding": "bytes",
        "label": "string",
        "numberOfBytes": "32"
      },
      "t_string_storage": {
        "encoding": "bytes",
        "label": "string",
        "numberOfBytes": "32"
      },
      "t_struct(ChallengeDetails)235_storage": {
        "encoding": "inplace",
        "label": "struct ChainHabits.ChallengeDetails",
        "members": [
          {
            "astId": 226,
            "contract": "contracts/ChainHabits.sol:ChainHabits",
            "label": "objective",
            "offset": 0,
            "slot": "0",
            "type": "t_string_storage"
          },
          {
            "astId": 228,
            "contract": "contracts/ChainHabits.sol:ChainHabits",
            "label": "startingMiles",
            "offset": 0,
            "slot": "1",
            "type": "t_uint8"
          },
          {
            "astId": 230,
            "contract": "contracts/ChainHabits.sol:ChainHabits",
            "label": "NoOfWeeks",
            "offset": 1,
            "slot": "1",
            "type": "t_uint8"
          },
          {
            "astId": 232,
            "contract": "contracts/ChainHabits.sol:ChainHabits",
            "label": "isLive",
            "offset": 2,
            "slot": "1",
            "type": "t_bool"
          },
          {
            "astId": 234,
            "contract": "contracts/ChainHabits.sol:ChainHabits",
            "label": "deadline",
            "offset": 0,
            "slot": "2",
            "type": "t_uint256"
          }
        ],
        "numberOfBytes": "96"
      },
      "t_struct(UserDetails)224_storage": {
        "encoding": "inplace",
        "label": "struct ChainHabits.UserDetails",
        "members": [
          {
            "astId": 209,
            "contract": "contracts/ChainHabits.sol:ChainHabits",
            "label": "username",
            "offset": 0,
            "slot": "0",
            "type": "t_string_storage"
          },
          {
            "astId": 211,
            "contract": "contracts/ChainHabits.sol:ChainHabits",
            "label": "challengeTally",
            "offset": 0,
            "slot": "1",
            "type": "t_uint256"
          },
          {
            "astId": 213,
            "contract": "contracts/ChainHabits.sol:ChainHabits",
            "label": "SuccessfulChallenges",
            "offset": 0,
            "slot": "2",
            "type": "t_uint256"
          },
          {
            "astId": 215,
            "contract": "contracts/ChainHabits.sol:ChainHabits",
            "label": "TotalStaked",
            "offset": 0,
            "slot": "3",
            "type": "t_uint256"
          },
          {
            "astId": 217,
            "contract": "contracts/ChainHabits.sol:ChainHabits",
            "label": "TotalDonated",
            "offset": 0,
            "slot": "4",
            "type": "t_uint256"
          },
          {
            "astId": 219,
            "contract": "contracts/ChainHabits.sol:ChainHabits",
            "label": "userID",
            "offset": 0,
            "slot": "5",
            "type": "t_uint256"
          },
          {
            "astId": 221,
            "contract": "contracts/ChainHabits.sol:ChainHabits",
            "label": "accessToken",
            "offset": 0,
            "slot": "6",
            "type": "t_string_storage"
          },
          {
            "astId": 223,
            "contract": "contracts/ChainHabits.sol:ChainHabits",
            "label": "refreshToken",
            "offset": 0,
            "slot": "7",
            "type": "t_string_storage"
          }
        ],
        "numberOfBytes": "256"
      },
      "t_uint256": {
        "encoding": "inplace",
        "label": "uint256",
        "numberOfBytes": "32"
      },
      "t_uint8": {
        "encoding": "inplace",
        "label": "uint8",
        "numberOfBytes": "1"
      }
    }
  }
}