{
  "address": "0xe6695Eb4aF334688BB008b90147338B5886cB970",
  "abi": [
    {
      "inputs": [],
      "stateMutability": "nonpayable",
      "type": "constructor"
    },
    {
      "inputs": [
        {
          "internalType": "address",
          "name": "Caller",
          "type": "address"
        }
      ],
      "name": "CHAINHABITS__CallerNotAdmin",
      "type": "error"
    },
    {
      "inputs": [],
      "name": "CHAINHABITS__UserAlreadyRegistered",
      "type": "error"
    },
    {
      "inputs": [],
      "name": "CHAINHABITS__UserNotYetRegistered",
      "type": "error"
    },
    {
      "anonymous": false,
      "inputs": [
        {
          "indexed": false,
          "internalType": "uint256",
          "name": "challengeId",
          "type": "uint256"
        },
        {
          "indexed": false,
          "internalType": "string",
          "name": "Objective",
          "type": "string"
        },
        {
          "indexed": false,
          "internalType": "uint8",
          "name": "startingMiles",
          "type": "uint8"
        },
        {
          "indexed": false,
          "internalType": "uint8",
          "name": "NumberofWeeks",
          "type": "uint8"
        },
        {
          "indexed": false,
          "internalType": "uint48",
          "name": "competitionDeadline",
          "type": "uint48"
        },
        {
          "indexed": false,
          "internalType": "uint48",
          "name": "currentIntervalEpoch",
          "type": "uint48"
        },
        {
          "indexed": false,
          "internalType": "uint48",
          "name": "nextIntervalEpoch",
          "type": "uint48"
        },
        {
          "indexed": false,
          "internalType": "address",
          "name": "defaultAddress",
          "type": "address"
        }
      ],
      "name": "NewChallengeCreated",
      "type": "event"
    },
    {
      "anonymous": false,
      "inputs": [
        {
          "indexed": false,
          "internalType": "address",
          "name": "user",
          "type": "address"
        }
      ],
      "name": "NewUserRegistered",
      "type": "event"
    },
    {
      "inputs": [],
      "name": "admin",
      "outputs": [
        {
          "internalType": "address",
          "name": "",
          "type": "address"
        }
      ],
      "stateMutability": "view",
      "type": "function"
    },
    {
      "inputs": [
        {
          "internalType": "uint256",
          "name": "",
          "type": "uint256"
        }
      ],
      "name": "allUsers",
      "outputs": [
        {
          "internalType": "address",
          "name": "",
          "type": "address"
        }
      ],
      "stateMutability": "view",
      "type": "function"
    },
    {
      "inputs": [
        {
          "internalType": "string",
          "name": "_obj",
          "type": "string"
        },
        {
          "internalType": "uint8",
          "name": "_targetMiles",
          "type": "uint8"
        },
        {
          "internalType": "uint8",
          "name": "_weeks",
          "type": "uint8"
        },
        {
          "internalType": "address",
          "name": "_defaultAddress",
          "type": "address"
        }
      ],
      "name": "createNewChallenge",
      "outputs": [
        {
          "internalType": "uint256",
          "name": "challengeId",
          "type": "uint256"
        }
      ],
      "stateMutability": "payable",
      "type": "function"
    },
    {
      "inputs": [],
      "name": "getAllUserDetails",
      "outputs": [
        {
          "internalType": "address[]",
          "name": "",
          "type": "address[]"
        }
      ],
      "stateMutability": "view",
      "type": "function"
    },
    {
      "inputs": [
        {
          "internalType": "uint256",
          "name": "_challengeId",
          "type": "uint256"
        }
      ],
      "name": "getChallengeDetails",
      "outputs": [
        {
          "components": [
            {
              "internalType": "string",
              "name": "objective",
              "type": "string"
            },
            {
              "internalType": "uint8",
              "name": "targetMiles",
              "type": "uint8"
            },
            {
              "internalType": "uint8",
              "name": "NoOfWeeks",
              "type": "uint8"
            },
            {
              "internalType": "uint8",
              "name": "failedWeeks",
              "type": "uint8"
            },
            {
              "internalType": "bool",
              "name": "isLive",
              "type": "bool"
            },
            {
              "internalType": "uint48",
              "name": "competitionDeadline",
              "type": "uint48"
            },
            {
              "internalType": "uint48",
              "name": "currentIntervalEpoch",
              "type": "uint48"
            },
            {
              "internalType": "uint48",
              "name": "nextIntervalEpoch",
              "type": "uint48"
            },
            {
              "internalType": "address",
              "name": "defaultAddress",
              "type": "address"
            }
          ],
          "internalType": "struct ChainHabits.ChallengeDetails",
          "name": "",
          "type": "tuple"
        }
      ],
      "stateMutability": "view",
      "type": "function"
    },
    {
      "inputs": [
        {
          "internalType": "address",
          "name": "_userAddress",
          "type": "address"
        }
      ],
      "name": "getChallengeId",
      "outputs": [
        {
          "internalType": "uint256",
          "name": "",
          "type": "uint256"
        }
      ],
      "stateMutability": "view",
      "type": "function"
    },
    {
      "inputs": [
        {
          "internalType": "address",
          "name": "_user",
          "type": "address"
        }
      ],
      "name": "getUserDetails",
      "outputs": [
        {
          "components": [
            {
              "internalType": "uint256",
              "name": "challengeTally",
              "type": "uint256"
            },
            {
              "internalType": "uint256",
              "name": "SuccessfulChallenges",
              "type": "uint256"
            },
            {
              "internalType": "uint256",
              "name": "currenStaked",
              "type": "uint256"
            },
            {
              "internalType": "uint256",
              "name": "totalDonated",
              "type": "uint256"
            },
            {
              "internalType": "uint256",
              "name": "userID",
              "type": "uint256"
            },
            {
              "internalType": "string",
              "name": "refreshToken",
              "type": "string"
            }
          ],
          "internalType": "struct ChainHabits.UserDetails",
          "name": "",
          "type": "tuple"
        }
      ],
      "stateMutability": "view",
      "type": "function"
    },
    {
      "inputs": [
        {
          "internalType": "uint256",
          "name": "challengeId",
          "type": "uint256"
        },
        {
          "internalType": "uint256",
          "name": "_amountToDefault",
          "type": "uint256"
        }
      ],
      "name": "handleCompleteChallenge",
      "outputs": [],
      "stateMutability": "nonpayable",
      "type": "function"
    },
    {
      "inputs": [
        {
          "internalType": "uint256",
          "name": "_challengeId",
          "type": "uint256"
        },
        {
          "internalType": "bool",
          "name": "failed",
          "type": "bool"
        },
        {
          "internalType": "uint48",
          "name": "currentIntervalEpoch",
          "type": "uint48"
        },
        {
          "internalType": "uint48",
          "name": "nextIntervalEpoch",
          "type": "uint48"
        }
      ],
      "name": "handleIntervalReview",
      "outputs": [],
      "stateMutability": "nonpayable",
      "type": "function"
    },
    {
      "inputs": [
        {
          "internalType": "address",
          "name": "",
          "type": "address"
        }
      ],
      "name": "isUserRegisteredTable",
      "outputs": [
        {
          "internalType": "bool",
          "name": "",
          "type": "bool"
        }
      ],
      "stateMutability": "view",
      "type": "function"
    },
    {
      "inputs": [
        {
          "internalType": "uint256",
          "name": "userID",
          "type": "uint256"
        },
        {
          "internalType": "string",
          "name": "_refreshToken",
          "type": "string"
        }
      ],
      "name": "registerNewUser",
      "outputs": [],
      "stateMutability": "nonpayable",
      "type": "function"
    },
    {
      "inputs": [
        {
          "internalType": "address",
          "name": "_user",
          "type": "address"
        },
        {
          "internalType": "string",
          "name": "_refreshToken",
          "type": "string"
        }
      ],
      "name": "updateRefreshToken",
      "outputs": [],
      "stateMutability": "nonpayable",
      "type": "function"
    },
    {
      "inputs": [
        {
          "internalType": "address",
          "name": "",
          "type": "address"
        }
      ],
      "name": "userHasLiveChallenge",
      "outputs": [
        {
          "internalType": "bool",
          "name": "",
          "type": "bool"
        }
      ],
      "stateMutability": "view",
      "type": "function"
    },
    {
      "inputs": [],
      "name": "withdrawFunds",
      "outputs": [],
      "stateMutability": "nonpayable",
      "type": "function"
    }
  ],
  "transactionHash": "0xea4fd0e56f079d8ad461cb9936ed7ff7a695fffbb892b2b57d0d3f00a71b61bb",
  "args": [],
  "numDeployments": 1,
  "solcInputHash": "6caff392e85b584696087319ba235bb4",
  "bytecode": "0x608060405234801561001057600080fd5b50600180546001600160a01b03191633179055611760806100326000396000f3fe6080604052600436106100dd5760003560e01c8063c8d907fb1161007f578063e30a392411610059578063e30a392414610285578063f851a440146102bb578063f9643e4e146102db578063fb24a703146102fd57600080fd5b8063c8d907fb14610208578063cc3d967b14610228578063d0a2a9401461025557600080fd5b80633d40a54f116100bb5780633d40a54f14610139578063937681b81461016f578063a2bdedf414610190578063addb889d146101c857600080fd5b80630d63efa7146100e257806315452ad01461010457806324600fc314610124575b600080fd5b3480156100ee57600080fd5b506101026100fd366004611066565b61031d565b005b34801561011057600080fd5b5061010261011f3660046110cf565b610388565b34801561013057600080fd5b506101026104ac565b34801561014557600080fd5b50610159610154366004611123565b6104df565b6040516101669190611182565b60405180910390f35b61018261017d366004611251565b610658565b604051908152602001610166565b34801561019c57600080fd5b506101b06101ab366004611123565b61091a565b6040516001600160a01b039091168152602001610166565b3480156101d457600080fd5b506101f86101e33660046112c7565b60036020526000908152604090205460ff1681565b6040519015158152602001610166565b34801561021457600080fd5b506101026102233660046112e9565b610944565b34801561023457600080fd5b506102486102433660046112c7565b610c7f565b604051610166919061130b565b34801561026157600080fd5b506101f86102703660046112c7565b60046020526000908152604090205460ff1681565b34801561029157600080fd5b506101826102a03660046112c7565b6001600160a01b031660009081526007602052604090205490565b3480156102c757600080fd5b506001546101b0906001600160a01b031681565b3480156102e757600080fd5b506102f0610db3565b6040516101669190611360565b34801561030957600080fd5b506101026103183660046113ad565b610e15565b60015433906001600160a01b0316811461035a576040516305a73c3160e11b81526001600160a01b03821660048201526024015b60405180910390fd5b6001600160a01b03841660009081526005602081905260409091200161038183858361147f565b5050505050565b60015433906001600160a01b031681146103c0576040516305a73c3160e11b81526001600160a01b0382166004820152602401610351565b8315610408576000858152600660205260409020600101805462010000900460ff169060026103ee83611555565b91906101000a81548160ff021916908360ff160217905550505b604080518082018252600a8152696661696c65647765656b60b01b602080830191909152600088815260069091529190912060010154610451919062010000900460ff16610f93565b5060009384526006602052604090932060010180546bffffffffffffffffffffffff60501b1916600160501b65ffffffffffff9384160265ffffffffffff60801b191617600160801b92909416919091029290921790915550565b3360008181526003602052604090205460ff166104dc57604051632ac0e50f60e11b815260040160405180910390fd5b50565b6040805161012081018252606080825260006020830181905292820183905281018290526080810182905260a0810182905260c0810182905260e081018290526101008101919091526000828152600660205260409081902081516101208101909252805482908290610551906113f6565b80601f016020809104026020016040519081016040528092919081815260200182805461057d906113f6565b80156105ca5780601f1061059f576101008083540402835291602001916105ca565b820191906000526020600020905b8154815290600101906020018083116105ad57829003601f168201915b5050509183525050600182015460ff80821660208401526101008083048216604085015262010000830482166060850152630100000083049091161515608084015265ffffffffffff6401000000008304811660a0850152600160501b8304811660c0850152600160801b90920490911660e08301526002909201546001600160a01b031691015292915050565b3360008181526003602052604081205490919060ff1661068b57604051632ac0e50f60e11b815260040160405180910390fd5b60008054925082908061069d83611574565b919050555060405180610120016040528088888080601f016020809104026020016040519081016040528093929190818152602001838380828437600092018290525093855250505060ff80891660208401528716604083015260608201526001608082015260a001610713426224ea0061158d565b65ffffffffffff1681526020014265ffffffffffff1681526020014262093a8061073d919061158d565b65ffffffffffff1681526001600160a01b03851660209182015260008481526006909152604090208151819061077390826115b3565b506020828101516001830180546040808701516060880151608089015160a08a015160c08b015160e08c015160ff998a1661ffff1990981697909717610100958a1686021763ffff0000191662010000999094169890980263ff000000191692909217630100000091151591909102176fffffffffffffffffffffffff00000000191664010000000065ffffffffffff9283160265ffffffffffff60501b191617600160501b968216969096029590951765ffffffffffff60801b1916600160801b959093169490940291909117909155930151600292830180546001600160a01b0319166001600160a01b03909216919091179055336000908152600782528381208690556005909152918220018054349290610892908490611673565b9091555050336000908152600460205260409020805460ff191660011790557f29b70b0c447c08b99b85e90f858fee03293839973b716e5cf522493643b2f53082888888886108e4426240998061158d565b426108f28162093a8061158d565b8b6040516109089998979695949392919061168c565b60405180910390a15095945050505050565b6002818154811061092a57600080fd5b6000918252602090912001546001600160a01b0316905081565b60015433906001600160a01b0316811461097c576040516305a73c3160e11b81526001600160a01b0382166004820152602401610351565b600083815260066020526040808220815161012081019092528054829082906109a4906113f6565b80601f01602080910402602001604051908101604052809291908181526020018280546109d0906113f6565b8015610a1d5780601f106109f257610100808354040283529160200191610a1d565b820191906000526020600020905b815481529060010190602001808311610a0057829003601f168201915b5050509183525050600182015460ff80821660208401526101008083048216604085015262010000830482166060850152630100000083049091161515608084015265ffffffffffff6401000000008304811660a0850152600160501b8304811660c0850152600160801b90920490911660e08301526002909201546001600160a01b031691015290508215610b4c5760008161010001516001600160a01b03168460405160006040518083038185875af1925050503d8060008114610aff576040519150601f19603f3d011682016040523d82523d6000602084013e610b04565b606091505b5050905080610b4a5760405162461bcd60e51b81526020600482015260126024820152710ccc2d2d8cac840e8de40e6cadcc840cae8d60731b6044820152606401610351565b505b336000908152600460209081526040808320805460ff19169055608084018390528683526006909152902081518291908190610b8890826115b3565b50602082015160018201805460408501516060860151608087015160a088015160c089015160e08a015160ff98891661ffff199097169690961761010095891686021763ffff0000191662010000989094169790970263ff000000191692909217630100000091151591909102176fffffffffffffffffffffffff00000000191664010000000065ffffffffffff9283160265ffffffffffff60501b191617600160501b958216959095029490941765ffffffffffff60801b1916600160801b949092169390930217905590910151600290910180546001600160a01b0319166001600160a01b0390921691909117905550505050565b610cb86040518060c001604052806000815260200160008152602001600081526020016000815260200160008152602001606081525090565b60056000836001600160a01b03166001600160a01b031681526020019081526020016000206040518060c00160405290816000820154815260200160018201548152602001600282015481526020016003820154815260200160048201548152602001600582018054610d2a906113f6565b80601f0160208091040260200160405190810160405280929190818152602001828054610d56906113f6565b8015610da35780601f10610d7857610100808354040283529160200191610da3565b820191906000526020600020905b815481529060010190602001808311610d8657829003601f168201915b5050505050815250509050919050565b60606002805480602002602001604051908101604052809291908181526020018280548015610e0b57602002820191906000526020600020905b81546001600160a01b03168152600190910190602001808311610ded575b5050505050905090565b3360008181526003602052604090205460ff1615610e4657604051632f22a0e560e01b815260040160405180910390fd5b6040518060c001604052806000815260200160008152602001600081526020016000815260200185815260200184848080601f01602080910402602001604051908101604052809392919081815260200183838082843760009201829052509390945250503381526005602081815260409283902085518155908501516001820155918401516002830155606084015160038301556080840151600483015560a0840151919250820190610efa90826115b3565b5050336000818152600360209081526040808320805460ff191660019081179091556002805491820181559093527f405787fa12a823e0f2b7631cc41b3ba8828b3321ca811111fa75cd3aa3bb5ace90920180546001600160a01b0319168417905590519182527ff382cb45b37e0f2786ad5a8328040a5c6a63584130f9076ba1627d420ffadc8b92500160405180910390a150505050565b610fd88282604051602401610fa9929190611708565b60408051601f198184030181529190526020810180516001600160e01b0316632d839cb360e21b179052610fdc565b5050565b6104dc8160006a636f6e736f6c652e6c6f679050600080835160208501845afa505050565b80356001600160a01b038116811461101857600080fd5b919050565b60008083601f84011261102f57600080fd5b50813567ffffffffffffffff81111561104757600080fd5b60208301915083602082850101111561105f57600080fd5b9250929050565b60008060006040848603121561107b57600080fd5b61108484611001565b9250602084013567ffffffffffffffff8111156110a057600080fd5b6110ac8682870161101d565b9497909650939450505050565b803565ffffffffffff8116811461101857600080fd5b600080600080608085870312156110e557600080fd5b84359350602085013580151581146110fc57600080fd5b925061110a604086016110b9565b9150611118606086016110b9565b905092959194509250565b60006020828403121561113557600080fd5b5035919050565b6000815180845260005b8181101561116257602081850181015186830182015201611146565b506000602082860101526020601f19601f83011685010191505092915050565b60208152600082516101208060208501526111a161014085018361113c565b915060208501516111b7604086018260ff169052565b50604085015160ff8116606086015250606085015160ff8116608086015250608085015180151560a08601525060a085015165ffffffffffff811660c08601525060c085015165ffffffffffff811660e08601525060e08501516101006112278187018365ffffffffffff169052565b909501516001600160a01b031693019290925250919050565b803560ff8116811461101857600080fd5b60008060008060006080868803121561126957600080fd5b853567ffffffffffffffff81111561128057600080fd5b61128c8882890161101d565b909650945061129f905060208701611240565b92506112ad60408701611240565b91506112bb60608701611001565b90509295509295909350565b6000602082840312156112d957600080fd5b6112e282611001565b9392505050565b600080604083850312156112fc57600080fd5b50508035926020909101359150565b6020815281516020820152602082015160408201526040820151606082015260608201516080820152608082015160a0820152600060a083015160c08084015261135860e084018261113c565b949350505050565b6020808252825182820181905260009190848201906040850190845b818110156113a15783516001600160a01b03168352928401929184019160010161137c565b50909695505050505050565b6000806000604084860312156113c257600080fd5b83359250602084013567ffffffffffffffff8111156110a057600080fd5b634e487b7160e01b600052604160045260246000fd5b600181811c9082168061140a57607f821691505b60208210810361142a57634e487b7160e01b600052602260045260246000fd5b50919050565b601f82111561147a57600081815260208120601f850160051c810160208610156114575750805b601f850160051c820191505b8181101561147657828155600101611463565b5050505b505050565b67ffffffffffffffff831115611497576114976113e0565b6114ab836114a583546113f6565b83611430565b6000601f8411600181146114df57600085156114c75750838201355b600019600387901b1c1916600186901b178355610381565b600083815260209020601f19861690835b8281101561151057868501358255602094850194600190920191016114f0565b508682101561152d5760001960f88860031b161c19848701351681555b505060018560011b0183555050505050565b634e487b7160e01b600052601160045260246000fd5b600060ff821660ff810361156b5761156b61153f565b60010192915050565b6000600182016115865761158661153f565b5060010190565b65ffffffffffff8181168382160190808211156115ac576115ac61153f565b5092915050565b815167ffffffffffffffff8111156115cd576115cd6113e0565b6115e1816115db84546113f6565b84611430565b602080601f83116001811461161657600084156115fe5750858301515b600019600386901b1c1916600185901b178555611476565b600085815260208120601f198616915b8281101561164557888601518255948401946001909101908401611626565b50858210156116635787850151600019600388901b60f8161c191681555b5050505050600190811b01905550565b808201808211156116865761168661153f565b92915050565b60006101008b8352806020840152898184015250610120898b8285013760008a840182015260ff988916604084015296909716606082015265ffffffffffff948516608082015292841660a0840152921660c08201526001600160a01b0390911660e0820152601f909301601f19169092019091019392505050565b60408152600061171b604083018561113c565b9050826020830152939250505056fea264697066735822122063aeb7430ce3f255c8aaec7a2332565afea4314ee135289044a73afe2cfddf9064736f6c63430008130033",
  "devdoc": {
    "kind": "dev",
    "methods": {},
    "version": 1
  },
  "userdoc": {
    "kind": "user",
    "methods": {},
    "version": 1
  },
  "storageLayout": {
    "storage": [
      {
        "astId": 197,
        "contract": "contracts/ChainHabits.sol:ChainHabits",
        "label": "challengeCounter",
        "offset": 0,
        "slot": "0",
        "type": "t_uint256"
      },
      {
        "astId": 199,
        "contract": "contracts/ChainHabits.sol:ChainHabits",
        "label": "admin",
        "offset": 0,
        "slot": "1",
        "type": "t_address"
      },
      {
        "astId": 202,
        "contract": "contracts/ChainHabits.sol:ChainHabits",
        "label": "allUsers",
        "offset": 0,
        "slot": "2",
        "type": "t_array(t_address)dyn_storage"
      },
      {
        "astId": 238,
        "contract": "contracts/ChainHabits.sol:ChainHabits",
        "label": "isUserRegisteredTable",
        "offset": 0,
        "slot": "3",
        "type": "t_mapping(t_address,t_bool)"
      },
      {
        "astId": 242,
        "contract": "contracts/ChainHabits.sol:ChainHabits",
        "label": "userHasLiveChallenge",
        "offset": 0,
        "slot": "4",
        "type": "t_mapping(t_address,t_bool)"
      },
      {
        "astId": 247,
        "contract": "contracts/ChainHabits.sol:ChainHabits",
        "label": "userTable",
        "offset": 0,
        "slot": "5",
        "type": "t_mapping(t_address,t_struct(UserDetails)215_storage)"
      },
      {
        "astId": 252,
        "contract": "contracts/ChainHabits.sol:ChainHabits",
        "label": "challengeTable",
        "offset": 0,
        "slot": "6",
        "type": "t_mapping(t_uint256,t_struct(ChallengeDetails)234_storage)"
      },
      {
        "astId": 256,
        "contract": "contracts/ChainHabits.sol:ChainHabits",
        "label": "usersCurrentChallenge",
        "offset": 0,
        "slot": "7",
        "type": "t_mapping(t_address,t_uint256)"
      }
    ],
    "types": {
      "t_address": {
        "encoding": "inplace",
        "label": "address",
        "numberOfBytes": "20"
      },
      "t_array(t_address)dyn_storage": {
        "base": "t_address",
        "encoding": "dynamic_array",
        "label": "address[]",
        "numberOfBytes": "32"
      },
      "t_bool": {
        "encoding": "inplace",
        "label": "bool",
        "numberOfBytes": "1"
      },
      "t_mapping(t_address,t_bool)": {
        "encoding": "mapping",
        "key": "t_address",
        "label": "mapping(address => bool)",
        "numberOfBytes": "32",
        "value": "t_bool"
      },
      "t_mapping(t_address,t_struct(UserDetails)215_storage)": {
        "encoding": "mapping",
        "key": "t_address",
        "label": "mapping(address => struct ChainHabits.UserDetails)",
        "numberOfBytes": "32",
        "value": "t_struct(UserDetails)215_storage"
      },
      "t_mapping(t_address,t_uint256)": {
        "encoding": "mapping",
        "key": "t_address",
        "label": "mapping(address => uint256)",
        "numberOfBytes": "32",
        "value": "t_uint256"
      },
      "t_mapping(t_uint256,t_struct(ChallengeDetails)234_storage)": {
        "encoding": "mapping",
        "key": "t_uint256",
        "label": "mapping(uint256 => struct ChainHabits.ChallengeDetails)",
        "numberOfBytes": "32",
        "value": "t_struct(ChallengeDetails)234_storage"
      },
      "t_string_storage": {
        "encoding": "bytes",
        "label": "string",
        "numberOfBytes": "32"
      },
      "t_struct(ChallengeDetails)234_storage": {
        "encoding": "inplace",
        "label": "struct ChainHabits.ChallengeDetails",
        "members": [
          {
            "astId": 217,
            "contract": "contracts/ChainHabits.sol:ChainHabits",
            "label": "objective",
            "offset": 0,
            "slot": "0",
            "type": "t_string_storage"
          },
          {
            "astId": 219,
            "contract": "contracts/ChainHabits.sol:ChainHabits",
            "label": "targetMiles",
            "offset": 0,
            "slot": "1",
            "type": "t_uint8"
          },
          {
            "astId": 221,
            "contract": "contracts/ChainHabits.sol:ChainHabits",
            "label": "NoOfWeeks",
            "offset": 1,
            "slot": "1",
            "type": "t_uint8"
          },
          {
            "astId": 223,
            "contract": "contracts/ChainHabits.sol:ChainHabits",
            "label": "failedWeeks",
            "offset": 2,
            "slot": "1",
            "type": "t_uint8"
          },
          {
            "astId": 225,
            "contract": "contracts/ChainHabits.sol:ChainHabits",
            "label": "isLive",
            "offset": 3,
            "slot": "1",
            "type": "t_bool"
          },
          {
            "astId": 227,
            "contract": "contracts/ChainHabits.sol:ChainHabits",
            "label": "competitionDeadline",
            "offset": 4,
            "slot": "1",
            "type": "t_uint48"
          },
          {
            "astId": 229,
            "contract": "contracts/ChainHabits.sol:ChainHabits",
            "label": "currentIntervalEpoch",
            "offset": 10,
            "slot": "1",
            "type": "t_uint48"
          },
          {
            "astId": 231,
            "contract": "contracts/ChainHabits.sol:ChainHabits",
            "label": "nextIntervalEpoch",
            "offset": 16,
            "slot": "1",
            "type": "t_uint48"
          },
          {
            "astId": 233,
            "contract": "contracts/ChainHabits.sol:ChainHabits",
            "label": "defaultAddress",
            "offset": 0,
            "slot": "2",
            "type": "t_address"
          }
        ],
        "numberOfBytes": "96"
      },
      "t_struct(UserDetails)215_storage": {
        "encoding": "inplace",
        "label": "struct ChainHabits.UserDetails",
        "members": [
          {
            "astId": 204,
            "contract": "contracts/ChainHabits.sol:ChainHabits",
            "label": "challengeTally",
            "offset": 0,
            "slot": "0",
            "type": "t_uint256"
          },
          {
            "astId": 206,
            "contract": "contracts/ChainHabits.sol:ChainHabits",
            "label": "SuccessfulChallenges",
            "offset": 0,
            "slot": "1",
            "type": "t_uint256"
          },
          {
            "astId": 208,
            "contract": "contracts/ChainHabits.sol:ChainHabits",
            "label": "currenStaked",
            "offset": 0,
            "slot": "2",
            "type": "t_uint256"
          },
          {
            "astId": 210,
            "contract": "contracts/ChainHabits.sol:ChainHabits",
            "label": "totalDonated",
            "offset": 0,
            "slot": "3",
            "type": "t_uint256"
          },
          {
            "astId": 212,
            "contract": "contracts/ChainHabits.sol:ChainHabits",
            "label": "userID",
            "offset": 0,
            "slot": "4",
            "type": "t_uint256"
          },
          {
            "astId": 214,
            "contract": "contracts/ChainHabits.sol:ChainHabits",
            "label": "refreshToken",
            "offset": 0,
            "slot": "5",
            "type": "t_string_storage"
          }
        ],
        "numberOfBytes": "192"
      },
      "t_uint256": {
        "encoding": "inplace",
        "label": "uint256",
        "numberOfBytes": "32"
      },
      "t_uint48": {
        "encoding": "inplace",
        "label": "uint48",
        "numberOfBytes": "6"
      },
      "t_uint8": {
        "encoding": "inplace",
        "label": "uint8",
        "numberOfBytes": "1"
      }
    }
  }
}